{
  "_format": "hh-sol-artifact-1",
  "contractName": "SignatureVerifyingPaymasterV07",
  "sourceName": "contracts/SignatureVerifyingPaymasterV07.sol",
  "abi": [
    {
      "inputs": [
        {
          "internalType": "contract IEntryPoint",
          "name": "_entryPoint",
          "type": "address"
        }
      ],
      "stateMutability": "nonpayable",
      "type": "constructor"
    },
    {
      "inputs": [
        {
          "internalType": "address",
          "name": "target",
          "type": "address"
        }
      ],
      "name": "AddressEmptyCode",
      "type": "error"
    },
    {
      "inputs": [],
      "name": "ECDSAInvalidSignature",
      "type": "error"
    },
    {
      "inputs": [
        {
          "internalType": "uint256",
          "name": "length",
          "type": "uint256"
        }
      ],
      "name": "ECDSAInvalidSignatureLength",
      "type": "error"
    },
    {
      "inputs": [
        {
          "internalType": "bytes32",
          "name": "s",
          "type": "bytes32"
        }
      ],
      "name": "ECDSAInvalidSignatureS",
      "type": "error"
    },
    {
      "inputs": [
        {
          "internalType": "address",
          "name": "implementation",
          "type": "address"
        }
      ],
      "name": "ERC1967InvalidImplementation",
      "type": "error"
    },
    {
      "inputs": [],
      "name": "ERC1967NonPayable",
      "type": "error"
    },
    {
      "inputs": [],
      "name": "FailedCall",
      "type": "error"
    },
    {
      "inputs": [
        {
          "internalType": "uint256",
          "name": "requested",
          "type": "uint256"
        },
        {
          "internalType": "uint256",
          "name": "maxAllowed",
          "type": "uint256"
        }
      ],
      "name": "GasCostTooHigh",
      "type": "error"
    },
    {
      "inputs": [],
      "name": "InvalidInitialization",
      "type": "error"
    },
    {
      "inputs": [],
      "name": "InvalidPaymasterData",
      "type": "error"
    },
    {
      "inputs": [
        {
          "internalType": "uint256",
          "name": "length",
          "type": "uint256"
        }
      ],
      "name": "InvalidSignatureLength",
      "type": "error"
    },
    {
      "inputs": [],
      "name": "NotInitializing",
      "type": "error"
    },
    {
      "inputs": [
        {
          "internalType": "address",
          "name": "owner",
          "type": "address"
        }
      ],
      "name": "OwnableInvalidOwner",
      "type": "error"
    },
    {
      "inputs": [
        {
          "internalType": "address",
          "name": "account",
          "type": "address"
        }
      ],
      "name": "OwnableUnauthorizedAccount",
      "type": "error"
    },
    {
      "inputs": [
        {
          "internalType": "address",
          "name": "recovered",
          "type": "address"
        },
        {
          "internalType": "address",
          "name": "expected",
          "type": "address"
        }
      ],
      "name": "SignerMismatch",
      "type": "error"
    },
    {
      "inputs": [],
      "name": "UUPSUnauthorizedCallContext",
      "type": "error"
    },
    {
      "inputs": [
        {
          "internalType": "bytes32",
          "name": "slot",
          "type": "bytes32"
        }
      ],
      "name": "UUPSUnsupportedProxiableUUID",
      "type": "error"
    },
    {
      "inputs": [],
      "name": "UnauthorizedUpgrade",
      "type": "error"
    },
    {
      "anonymous": false,
      "inputs": [],
      "name": "EIP712DomainChanged",
      "type": "event"
    },
    {
      "anonymous": false,
      "inputs": [
        {
          "indexed": true,
          "internalType": "address",
          "name": "newEntryPoint",
          "type": "address"
        }
      ],
      "name": "EntryPointChanged",
      "type": "event"
    },
    {
      "anonymous": false,
      "inputs": [
        {
          "indexed": false,
          "internalType": "uint64",
          "name": "version",
          "type": "uint64"
        }
      ],
      "name": "Initialized",
      "type": "event"
    },
    {
      "anonymous": false,
      "inputs": [
        {
          "indexed": false,
          "internalType": "uint256",
          "name": "oldLimit",
          "type": "uint256"
        },
        {
          "indexed": false,
          "internalType": "uint256",
          "name": "newLimit",
          "type": "uint256"
        }
      ],
      "name": "MaxAllowedGasCostUpdated",
      "type": "event"
    },
    {
      "anonymous": false,
      "inputs": [
        {
          "indexed": true,
          "internalType": "address",
          "name": "previousOwner",
          "type": "address"
        },
        {
          "indexed": true,
          "internalType": "address",
          "name": "newOwner",
          "type": "address"
        }
      ],
      "name": "OwnershipTransferred",
      "type": "event"
    },
    {
      "anonymous": false,
      "inputs": [
        {
          "indexed": true,
          "internalType": "address",
          "name": "implementation",
          "type": "address"
        }
      ],
      "name": "Upgraded",
      "type": "event"
    },
    {
      "anonymous": false,
      "inputs": [
        {
          "indexed": false,
          "internalType": "bytes32",
          "name": "userOpHash",
          "type": "bytes32"
        },
        {
          "indexed": false,
          "internalType": "uint256",
          "name": "maxCost",
          "type": "uint256"
        },
        {
          "indexed": false,
          "internalType": "uint48",
          "name": "validUntil",
          "type": "uint48"
        },
        {
          "indexed": false,
          "internalType": "uint48",
          "name": "validAfter",
          "type": "uint48"
        }
      ],
      "name": "Validated",
      "type": "event"
    },
    {
      "anonymous": false,
      "inputs": [
        {
          "indexed": true,
          "internalType": "address",
          "name": "oldSigner",
          "type": "address"
        },
        {
          "indexed": true,
          "internalType": "address",
          "name": "newSigner",
          "type": "address"
        }
      ],
      "name": "VerifyingSignerUpdated",
      "type": "event"
    },
    {
      "inputs": [],
      "name": "UPGRADE_INTERFACE_VERSION",
      "outputs": [
        {
          "internalType": "string",
          "name": "",
          "type": "string"
        }
      ],
      "stateMutability": "view",
      "type": "function"
    },
    {
      "inputs": [],
      "name": "VERSION",
      "outputs": [
        {
          "internalType": "uint256",
          "name": "",
          "type": "uint256"
        }
      ],
      "stateMutability": "view",
      "type": "function"
    },
    {
      "inputs": [
        {
          "internalType": "uint32",
          "name": "unstakeDelaySec",
          "type": "uint32"
        }
      ],
      "name": "addStake",
      "outputs": [],
      "stateMutability": "payable",
      "type": "function"
    },
    {
      "inputs": [],
      "name": "deposit",
      "outputs": [],
      "stateMutability": "payable",
      "type": "function"
    },
    {
      "inputs": [],
      "name": "domainSeparator",
      "outputs": [
        {
          "internalType": "bytes32",
          "name": "",
          "type": "bytes32"
        }
      ],
      "stateMutability": "view",
      "type": "function"
    },
    {
      "inputs": [],
      "name": "eip712Domain",
      "outputs": [
        {
          "internalType": "bytes1",
          "name": "fields",
          "type": "bytes1"
        },
        {
          "internalType": "string",
          "name": "name",
          "type": "string"
        },
        {
          "internalType": "string",
          "name": "version",
          "type": "string"
        },
        {
          "internalType": "uint256",
          "name": "chainId",
          "type": "uint256"
        },
        {
          "internalType": "address",
          "name": "verifyingContract",
          "type": "address"
        },
        {
          "internalType": "bytes32",
          "name": "salt",
          "type": "bytes32"
        },
        {
          "internalType": "uint256[]",
          "name": "extensions",
          "type": "uint256[]"
        }
      ],
      "stateMutability": "view",
      "type": "function"
    },
    {
      "inputs": [],
      "name": "entryPoint",
      "outputs": [
        {
          "internalType": "contract IEntryPoint",
          "name": "",
          "type": "address"
        }
      ],
      "stateMutability": "view",
      "type": "function"
    },
    {
      "inputs": [],
      "name": "getDeposit",
      "outputs": [
        {
          "internalType": "uint256",
          "name": "",
          "type": "uint256"
        }
      ],
      "stateMutability": "view",
      "type": "function"
    },
    {
      "inputs": [
        {
          "internalType": "uint48",
          "name": "validUntil",
          "type": "uint48"
        },
        {
          "internalType": "uint48",
          "name": "validAfter",
          "type": "uint48"
        },
        {
          "internalType": "address",
          "name": "paymasterAddress",
          "type": "address"
        },
        {
          "internalType": "address",
          "name": "senderAddress",
          "type": "address"
        },
        {
          "internalType": "uint256",
          "name": "nonce",
          "type": "uint256"
        },
        {
          "internalType": "bytes32",
          "name": "calldataHash",
          "type": "bytes32"
        }
      ],
      "name": "getHash",
      "outputs": [
        {
          "internalType": "bytes32",
          "name": "",
          "type": "bytes32"
        }
      ],
      "stateMutability": "view",
      "type": "function"
    },
    {
      "inputs": [
        {
          "internalType": "address",
          "name": "_verifyingSigner",
          "type": "address"
        },
        {
          "internalType": "address",
          "name": "_owner",
          "type": "address"
        }
      ],
      "name": "initialize",
      "outputs": [],
      "stateMutability": "nonpayable",
      "type": "function"
    },
    {
      "inputs": [],
      "name": "maxAllowedGasCost",
      "outputs": [
        {
          "internalType": "uint256",
          "name": "",
          "type": "uint256"
        }
      ],
      "stateMutability": "view",
      "type": "function"
    },
    {
      "inputs": [],
      "name": "owner",
      "outputs": [
        {
          "internalType": "address",
          "name": "",
          "type": "address"
        }
      ],
      "stateMutability": "view",
      "type": "function"
    },
    {
      "inputs": [
        {
          "internalType": "enum IPaymaster.PostOpMode",
          "name": "mode",
          "type": "uint8"
        },
        {
          "internalType": "bytes",
          "name": "context",
          "type": "bytes"
        },
        {
          "internalType": "uint256",
          "name": "actualGasCost",
          "type": "uint256"
        },
        {
          "internalType": "uint256",
          "name": "actualUserOpFeePerGas",
          "type": "uint256"
        }
      ],
      "name": "postOp",
      "outputs": [],
      "stateMutability": "nonpayable",
      "type": "function"
    },
    {
      "inputs": [],
      "name": "proxiableUUID",
      "outputs": [
        {
          "internalType": "bytes32",
          "name": "",
          "type": "bytes32"
        }
      ],
      "stateMutability": "view",
      "type": "function"
    },
    {
      "inputs": [],
      "name": "renounceOwnership",
      "outputs": [],
      "stateMutability": "nonpayable",
      "type": "function"
    },
    {
      "inputs": [
        {
          "internalType": "uint256",
          "name": "_maxAllowedGasCost",
          "type": "uint256"
        }
      ],
      "name": "setMaxAllowedGasCost",
      "outputs": [],
      "stateMutability": "nonpayable",
      "type": "function"
    },
    {
      "inputs": [
        {
          "internalType": "address",
          "name": "_verifyingSigner",
          "type": "address"
        }
      ],
      "name": "setVerifyingSigner",
      "outputs": [],
      "stateMutability": "nonpayable",
      "type": "function"
    },
    {
      "inputs": [
        {
          "internalType": "address",
          "name": "newOwner",
          "type": "address"
        }
      ],
      "name": "transferOwnership",
      "outputs": [],
      "stateMutability": "nonpayable",
      "type": "function"
    },
    {
      "inputs": [],
      "name": "unlockStake",
      "outputs": [],
      "stateMutability": "nonpayable",
      "type": "function"
    },
    {
      "inputs": [
        {
          "internalType": "address",
          "name": "newImplementation",
          "type": "address"
        },
        {
          "internalType": "bytes",
          "name": "data",
          "type": "bytes"
        }
      ],
      "name": "upgradeToAndCall",
      "outputs": [],
      "stateMutability": "payable",
      "type": "function"
    },
    {
      "inputs": [
        {
          "components": [
            {
              "internalType": "address",
              "name": "sender",
              "type": "address"
            },
            {
              "internalType": "uint256",
              "name": "nonce",
              "type": "uint256"
            },
            {
              "internalType": "bytes",
              "name": "initCode",
              "type": "bytes"
            },
            {
              "internalType": "bytes",
              "name": "callData",
              "type": "bytes"
            },
            {
              "internalType": "bytes32",
              "name": "accountGasLimits",
              "type": "bytes32"
            },
            {
              "internalType": "uint256",
              "name": "preVerificationGas",
              "type": "uint256"
            },
            {
              "internalType": "bytes32",
              "name": "gasFees",
              "type": "bytes32"
            },
            {
              "internalType": "bytes",
              "name": "paymasterAndData",
              "type": "bytes"
            },
            {
              "internalType": "bytes",
              "name": "signature",
              "type": "bytes"
            }
          ],
          "internalType": "struct PackedUserOperation",
          "name": "userOp",
          "type": "tuple"
        },
        {
          "internalType": "bytes32",
          "name": "userOpHash",
          "type": "bytes32"
        },
        {
          "internalType": "uint256",
          "name": "maxCost",
          "type": "uint256"
        }
      ],
      "name": "validatePaymasterUserOp",
      "outputs": [
        {
          "internalType": "bytes",
          "name": "context",
          "type": "bytes"
        },
        {
          "internalType": "uint256",
          "name": "validationData",
          "type": "uint256"
        }
      ],
      "stateMutability": "nonpayable",
      "type": "function"
    },
    {
      "inputs": [],
      "name": "verifyingSigner",
      "outputs": [
        {
          "internalType": "address",
          "name": "",
          "type": "address"
        }
      ],
      "stateMutability": "view",
      "type": "function"
    },
    {
      "inputs": [
        {
          "internalType": "address payable",
          "name": "withdrawAddress",
          "type": "address"
        }
      ],
      "name": "withdrawStake",
      "outputs": [],
      "stateMutability": "nonpayable",
      "type": "function"
    },
    {
      "inputs": [
        {
          "internalType": "address payable",
          "name": "withdrawAddress",
          "type": "address"
        },
        {
          "internalType": "uint256",
          "name": "amount",
          "type": "uint256"
        }
      ],
      "name": "withdrawTo",
      "outputs": [],
      "stateMutability": "nonpayable",
      "type": "function"
    },
    {
      "stateMutability": "payable",
      "type": "receive"
    }
  ],
  "bytecode": "0x60c06040908082523462000278578062001f7980380380916200002382856200027d565b83396020928391810103126200027857516001600160a01b03808216908183036200027857306080523315620002605760008054336001600160a01b031982168117835587519492938793869360249385939091167f8be0079c531659141344cd1fd0a4f28419497f9722a3daafe3b4186f6b6457e08880a36301ffc9a760e01b825263122a0e9b60e31b60048301525afa918215620002545781926200020c575b505015620001c95760a0527ff0c57e16840df040f15088dc2f81fe391c3923bec73e23a9662efc9c229c6a009081549160ff83851c16620001b8576001600160401b03906002600160401b03198483160162000175575b8451611cc19081620002b882396080518181816107ec0152610915015260a05181818161038d01528181610442015281816104c901528181610536015281816110c5015281816111b3015281816113f601526114de0152f35b6001600160401b0319909316811790925582519182527fc7f505b2f371ae2175ee4913f4499e1f2633a7b5936321eed1cdaeb6115181d291a1388080806200011c565b835163f92ee8a960e01b8152600490fd5b50606491519062461bcd60e51b82526004820152601e60248201527f49456e747279506f696e7420696e74657266616365206d69736d6174636800006044820152fd5b9091508381813d83116200024c575b6200022781836200027d565b810103126200024857519081151582036200024557503880620000c5565b80fd5b5080fd5b503d6200021b565b508451903d90823e3d90fd5b8451631e4fbdf760e01b815260006004820152602490fd5b600080fd5b601f909101601f19168101906001600160401b03821190821017620002a157604052565b634e487b7160e01b600052604160045260246000fdfe60806040526004361015610023575b361561001957600080fd5b6100216113f4565b005b6000803560e01c80630396cb601461118b578063137550cb14611123578063205c28781461109857806323d9ac9b1461106f578063485cc95514610afb5780634f1ef286146108c657806352b7512c1461085657806352d1902d146107d9578063715018a61461077f5780637c627b211461072257806384b0196e146105d65780638da5cb5b146105af578063ad3cb1cc14610565578063b0d691fe14610520578063bb9fe6bf146104ad578063c23a5cea14610415578063c399ec8814610361578063d0e30db01461034d578063d29b068d1461032f578063dee7961314610239578063f2fde38b146101e3578063f5cba98c14610178578063f698da25146101555763ffa1ad7414610137575061000e565b34610152578060031936011261015257602060405160048152f35b80fd5b50346101525780600319360112610152576020610170611913565b604051908152f35b503461015257602036600319011261015257610192611217565b61019a611469565b600180546001600160a01b039283166001600160a01b0319821681179092559091167fdeee0b46266dc0734b009b2ca66e2ac28d5fd72d38506a3fe462865f00c5df4e8380a380f35b5034610152576020366003190112610152576101fd611217565b610205611469565b6001600160a01b038116156102205761021d90611495565b80f35b604051631e4fbdf760e01b815260048101839052602490fd5b503461015257602036600319011261015257600435610256611469565b80156102ea57670de0b6b3a764000081116102a55760407f264b162d0bab716ddc0e70a414b75d9edca1aea7c04b9a14b8bafe80236db22891600254908060025582519182526020820152a180f35b60405162461bcd60e51b815260206004820152601760248201527f47617320636f7374206c696d697420746f6f20686967680000000000000000006044820152606490fd5b60405162461bcd60e51b815260206004820152601d60248201527f47617320636f7374206c696d69742063616e6e6f74206265207a65726f0000006044820152606490fd5b50346101525780600319360112610152576020600254604051908152f35b50806003193601126101525761021d6113f4565b50346101525780600319360112610152576040516370a0823160e01b81523060048201526020816024817f00000000000000000000000000000000000000000000000000000000000000006001600160a01b03165afa90811561040a5782916103d0575b602082604051908152f35b90506020813d602011610402575b816103eb6020938361128c565b810103126103fe576020915051386103c5565b5080fd5b3d91506103de565b6040513d84823e3d90fd5b50346101525760203660031901126101525780610430611217565b610438611469565b6001600160a01b037f000000000000000000000000000000000000000000000000000000000000000081169190823b156104a8576024849283604051958694859363611d2e7560e11b85521660048401525af1801561040a576104985750f35b6104a19061122d565b6101525780f35b505050fd5b50346101525780600319360112610152576104c6611469565b807f00000000000000000000000000000000000000000000000000000000000000006001600160a01b0316803b1561051d5781809160046040518094819363bb9fe6bf60e01b83525af1801561040a576104985750f35b50fd5b50346101525780600319360112610152576040517f00000000000000000000000000000000000000000000000000000000000000006001600160a01b03168152602090f35b50346101525780600319360112610152576105ab60405161058581611256565b60058152640352e302e360dc1b60208201526040519182916020835260208301906112ff565b0390f35b5034610152578060031936011261015257546040516001600160a01b039091168152602090f35b50346101525780600319360112610152577fa16a46d94261c7517cc8ff89f61c0ce93598e3c849801011dee649a6a557d1005415806106f9575b156106bc5761065f90610621611783565b9061062a611847565b906040519161063883611271565b81835261066d602091604051968796600f60f81b885260e0602089015260e08801906112ff565b9086820360408801526112ff565b904660608601523060808601528260a086015284820360c0860152602080855193848152019401925b8281106106a557505050500390f35b835185528695509381019392810192600101610696565b60405162461bcd60e51b81526020600482015260156024820152741152540dcc4c8e88155b9a5b9a5d1a585b1a5e9959605a1b6044820152606490fd5b507fa16a46d94261c7517cc8ff89f61c0ce93598e3c849801011dee649a6a557d1015415610610565b50346101525760803660031901126101525760036004351015610152576024356001600160401b0380821161077b573660238301121561077b57816004013590811161077b57369101602401116101525761021d6114dc565b8280fd5b5034610152578060031936011261015257610798611469565b600080546001600160a01b0319811682556001600160a01b03167f8be0079c531659141344cd1fd0a4f28419497f9722a3daafe3b4186f6b6457e08280a380f35b50346101525780600319360112610152577f00000000000000000000000000000000000000000000000000000000000000006001600160a01b031630036108445760206040517f360894a13ba1a3210667c828492db98dca3e2076cc3735a920a3ca505d382bbc8152f35b60405163703e46dd60e11b8152600490fd5b5034610152576003199060603683011261015257600435916001600160401b0383116103fe57610120908336030112610152576108bc6108a8836108986114dc565b604435906024359060040161157d565b6040519283926040845260408401906112ff565b9060208301520390f35b506040366003190112610152576108db611217565b6024356001600160401b03811161077b573660238201121561077b5761090b9036906024816004013591016112c8565b6001600160a01b037f00000000000000000000000000000000000000000000000000000000000000008116308114908115610acd575b506108445761094e611469565b6040516352d1902d60e01b8152908316926020918281600481885afa869181610a9a575b5061099057604051634c9c8ce360e01b815260048101869052602490fd5b9385947f360894a13ba1a3210667c828492db98dca3e2076cc3735a920a3ca505d382bbc90818103610a825750823b15610a695780546001600160a01b0319168217905560405185917fbc7cd75a20ee27fd9adebab32041f755214dbc6bffa90cc0225b39da2e5c2d3b8380a2845115610a4c5750808484610a3f96519101845af4903d15610a43573d610a23816112ad565b90610a31604051928361128c565b81528581943d92013e611af8565b5080f35b60609250611af8565b935050505034610a5a575080f35b63b398979f60e01b8152600490fd5b604051634c9c8ce360e01b815260048101839052602490fd5b60249060405190632a87526960e21b82526004820152fd5b9091508381813d8311610ac6575b610ab2818361128c565b81010312610ac257519038610972565b8680fd5b503d610aa8565b9050817f360894a13ba1a3210667c828492db98dca3e2076cc3735a920a3ca505d382bbc5416141538610941565b503461015257604036600319011261015257610b15611217565b906024356001600160a01b038116900361106a57600080516020611c4c833981519152546001600160401b0381168015908161105a575b6001149081611050575b159081611047575b506110355760016001600160401b0319821617600080516020611c4c8339815191525560ff8160401c1615611008575b610b966118e4565b60405192610ba384611256565b601b84527f5369676e6174757265566572696679696e675061796d61737465720000000000602085015260405193610bda85611256565b60018552600d60fa1b6020860152610bf06118e4565b610bf86118e4565b8051906001600160401b038211610ff4578190610c23600080516020611bec83398151915254611749565b601f8111610f75575b50602090601f8311600114610ee5578692610eda575b50508160011b916000199060031b1c191617600080516020611bec833981519152555b83516001600160401b038111610ec657610c8d600080516020611c0c83398151915254611749565b601f8111610e4e575b506020601f8211600114610dc1578190859660ff9692610db6575b50508160011b916000199060031b1c191617600080516020611c0c833981519152555b837fa16a46d94261c7517cc8ff89f61c0ce93598e3c849801011dee649a6a557d10055837fa16a46d94261c7517cc8ff89f61c0ce93598e3c849801011dee649a6a557d1015560018060a01b03166bffffffffffffffffffffffff60a01b6001541617600155662386f26fc10000600255610d50602435611495565b60401c1615610d5c5780f35b68ff000000000000000019600080516020611c4c8339815191525416600080516020611c4c833981519152557fc7f505b2f371ae2175ee4913f4499e1f2633a7b5936321eed1cdaeb6115181d2602060405160018152a180f35b015190503880610cb1565b600080516020611c0c8339815191528552600080516020611c6c83398151915295601f198316865b818110610e3657509160ff969791846001959410610e1d575b505050811b01600080516020611c0c83398151915255610cd4565b015160001960f88460031b161c19169055388080610e02565b83830151895560019098019760209384019301610de9565b600080516020611c0c8339815191528552601f820160051c600080516020611c6c833981519152019060208310610eb0575b601f0160051c600080516020611c6c83398151915201905b818110610ea55750610c96565b858155600101610e98565b600080516020611c6c8339815191529150610e80565b634e487b7160e01b84526041600452602484fd5b015190503880610c42565b9250600080516020611bec8339815191528652600080516020611c2c8339815191529086935b601f1984168510610f5a576001945083601f19811610610f41575b505050811b01600080516020611bec83398151915255610c65565b015160001960f88460031b161c19169055388080610f26565b81810151835560209485019460019093019290910190610f0b565b909150600080516020611bec8339815191528652601f830160051c600080516020611c2c8339815191520160208410610fdf575b908392915b601f820160051c600080516020611c2c833981519152018110610fd15750610c2c565b878155849350600101610fae565b50600080516020611c2c833981519152610fa9565b634e487b7160e01b85526041600452602485fd5b68ffffffffffffffffff1981166801000000000000000117600080516020611c4c83398151915255610b8e565b60405163f92ee8a960e01b8152600490fd5b90501538610b5e565b303b159150610b56565b604083901c60ff16159150610b4c565b600080fd5b50346101525780600319360112610152576001546040516001600160a01b039091168152602090f35b503461015257604036600319011261015257806110b3611217565b6110bb611469565b6001600160a01b037f000000000000000000000000000000000000000000000000000000000000000081169190823b156104a8576044849283604051958694859363040b850f60e31b855216600484015260243560248401525af1801561040a576104985750f35b50346101525760c03660031901126101525760043565ffffffffffff808216820361106a57602435908116810361106a576001600160a01b03916044359190838316830361106a57606435938416840361106a576020936101709360a435936084359361133f565b5060203660031901126101525760043563ffffffff81168091036103fe576111b1611469565b7f00000000000000000000000000000000000000000000000000000000000000006001600160a01b0316908290823b156103fe57602460405180948193621cb65b60e51b8352600483015234905af1801561040a5761120e575080f35b61021d9061122d565b600435906001600160a01b038216820361106a57565b6001600160401b03811161124057604052565b634e487b7160e01b600052604160045260246000fd5b604081019081106001600160401b0382111761124057604052565b602081019081106001600160401b0382111761124057604052565b90601f801991011681019081106001600160401b0382111761124057604052565b6001600160401b03811161124057601f01601f191660200190565b9291926112d4826112ad565b916112e2604051938461128c565b82948184528183011161106a578281602093846000960137010152565b919082519283825260005b84811061132b575050826000602080949584010152601f8019910116010190565b60208183018101518483018201520161130a565b9492939190936040519560208701957f263cbeb8310a5b0df11f6f13c09cc60e3e2f353739581584f6c90742df65926b875265ffffffffffff809216604089015216606087015246608087015260018060a01b0380921660a08701521660c085015260e0840152610100908184015282526101208201918083106001600160401b03841117611240576042926040525190206113d9611913565b906040519161190160f01b8352600283015260228201522090565b7f00000000000000000000000000000000000000000000000000000000000000006001600160a01b0316803b1561106a5760006024916040519283809263b760faf960e01b825230600483015234905af1801561145d576114525750565b61145b9061122d565b565b6040513d6000823e3d90fd5b6000546001600160a01b0316330361147d57565b60405163118cdaa760e01b8152336004820152602490fd5b600080546001600160a01b039283166001600160a01b03198216811783559216907f8be0079c531659141344cd1fd0a4f28419497f9722a3daafe3b4186f6b6457e09080a3565b7f00000000000000000000000000000000000000000000000000000000000000006001600160a01b0316330361150e57565b60405162461bcd60e51b815260206004820152601560248201527414d95b99195c881b9bdd08115b9d1c9e541bda5b9d605a1b6044820152606490fd5b903590601e198136030182121561106a57018035906001600160401b03821161106a5760200191813603831361106a57565b90929161158d60e083018361154b565b90948160341161106a57603319820193604d8510611737578460061161106a576034870135948560d01c90600c1161106a57603a880135978860d01c92604095603f190160418103611720576001600160a01b039180359190838316830361106a576116429461162982611639956020611617611610606061163398018561154b565b36916112c8565b81815191012092013590308c8c61133f565b928a3692016112c8565b90611988565b909391936119c4565b80600154169116036116e7576002548086116116ca5750916080917fa832915335bfbcdcce15f4da2c2a11df06a8f97105e9be5968c9f6f42bd10366938551928352866020840152858301526060820152a151906020820152602081526116a881611256565b9260309190911c65ffffffffffff60a01b166001600160d01b03199091161790565b856044918651916332e1243560e11b835260048301526024820152fd5b5050506001929150516116f981611271565b600081529360309190911c65ffffffffffff60a01b166001600160d01b0319909116171790565b60249087519063058676ad60e31b82526004820152fd5b60405163097637e960e21b8152600490fd5b90600182811c92168015611779575b602083101461176357565b634e487b7160e01b600052602260045260246000fd5b91607f1691611758565b60405190600082600080516020611bec833981519152918254926117a684611749565b8084529360209160019182811690811561182157506001146117d2575b50505061145b9250038361128c565b6000908152600080516020611c2c8339815191529590935091905b828410611809575061145b9450505081016020013880806117c3565b855488850183015294850194879450928101926117ed565b925050506020925061145b94915060ff191682840152151560051b8201013880806117c3565b60405190600082600080516020611c0c8339815191529182549261186a84611749565b8084529360209160019182811690811561182157506001146118955750505061145b9250038361128c565b6000908152600080516020611c6c8339815191529590935091905b8284106118cc575061145b9450505081016020013880806117c3565b855488850183015294850194879450928101926118b0565b60ff600080516020611c4c8339815191525460401c161561190157565b604051631afcd79f60e31b8152600490fd5b61191b611a49565b611923611ab3565b6040519060208201927f8b73c3c69bb8fe3d512ecc4cf759cc79239f7b179b0ffacaa9a75d522b39400f8452604083015260608201524660808201523060a082015260a0815260c081018181106001600160401b038211176112405760405251902090565b81519190604183036119b9576119b292506020820151906060604084015193015160001a90611b5b565b9192909190565b505060009160029190565b6004811015611a3357806119d6575050565b600181036119f05760405163f645eedf60e01b8152600490fd5b60028103611a115760405163fce698f760e01b815260048101839052602490fd5b600314611a1b5750565b602490604051906335e2f38360e21b82526004820152fd5b634e487b7160e01b600052602160045260246000fd5b611a51611783565b8051908115611a61576020012090565b50507fa16a46d94261c7517cc8ff89f61c0ce93598e3c849801011dee649a6a557d100548015611a8e5790565b507fc5d2460186f7233c927e7db2dcc703c0e500b653ca82273b7bfad8045d85a47090565b611abb611847565b8051908115611acb576020012090565b50507fa16a46d94261c7517cc8ff89f61c0ce93598e3c849801011dee649a6a557d101548015611a8e5790565b90611b1f5750805115611b0d57805190602001fd5b60405163d6bda27560e01b8152600490fd5b81511580611b52575b611b30575090565b604051639996b31560e01b81526001600160a01b039091166004820152602490fd5b50803b15611b28565b91907f7fffffffffffffffffffffffffffffff5d576e7357a4501ddfe92f46681b20a08411611bdf57926020929160ff608095604051948552168484015260408301526060820152600092839182805260015afa15611bd35780516001600160a01b03811615611bca57918190565b50809160019190565b604051903d90823e3d90fd5b5050506000916003919056fea16a46d94261c7517cc8ff89f61c0ce93598e3c849801011dee649a6a557d102a16a46d94261c7517cc8ff89f61c0ce93598e3c849801011dee649a6a557d10342ad5d3e1f2e6e70edcf6d991b8a3023d3fca8047a131592f9edb9fd9b89d57df0c57e16840df040f15088dc2f81fe391c3923bec73e23a9662efc9c229c6a005f9ce34815f8e11431c7bb75a8e6886a91478f7ffc1dbb0a98dc240fddd76b75a26469706673582212201ca13f3c8ca869018c0acb6226d4316c095c9304ec28a4cca2b7de4e6aab2a0164736f6c63430008170033",
  "linkReferences": {},
  "deployedLinkReferences": {}
}