{
  "_format": "hh-sol-artifact-1",
  "contractName": "SignatureVerifyingPaymasterV07",
  "sourceName": "contracts/SignatureVerifyingPaymasterV07.sol",
  "abi": [
    {
      "inputs": [
        {
          "internalType": "contract IEntryPoint",
          "name": "_entryPoint",
          "type": "address"
        }
      ],
      "stateMutability": "nonpayable",
      "type": "constructor"
    },
    {
      "inputs": [
        {
          "internalType": "address",
          "name": "target",
          "type": "address"
        }
      ],
      "name": "AddressEmptyCode",
      "type": "error"
    },
    {
      "inputs": [],
      "name": "ECDSAInvalidSignature",
      "type": "error"
    },
    {
      "inputs": [
        {
          "internalType": "uint256",
          "name": "length",
          "type": "uint256"
        }
      ],
      "name": "ECDSAInvalidSignatureLength",
      "type": "error"
    },
    {
      "inputs": [
        {
          "internalType": "bytes32",
          "name": "s",
          "type": "bytes32"
        }
      ],
      "name": "ECDSAInvalidSignatureS",
      "type": "error"
    },
    {
      "inputs": [
        {
          "internalType": "address",
          "name": "implementation",
          "type": "address"
        }
      ],
      "name": "ERC1967InvalidImplementation",
      "type": "error"
    },
    {
      "inputs": [],
      "name": "ERC1967NonPayable",
      "type": "error"
    },
    {
      "inputs": [],
      "name": "FailedCall",
      "type": "error"
    },
    {
      "inputs": [
        {
          "internalType": "uint256",
          "name": "requested",
          "type": "uint256"
        },
        {
          "internalType": "uint256",
          "name": "maxAllowed",
          "type": "uint256"
        }
      ],
      "name": "GasCostTooHigh",
      "type": "error"
    },
    {
      "inputs": [],
      "name": "InvalidInitialization",
      "type": "error"
    },
    {
      "inputs": [],
      "name": "InvalidPaymasterData",
      "type": "error"
    },
    {
      "inputs": [
        {
          "internalType": "uint256",
          "name": "length",
          "type": "uint256"
        }
      ],
      "name": "InvalidSignatureLength",
      "type": "error"
    },
    {
      "inputs": [],
      "name": "NotInitializing",
      "type": "error"
    },
    {
      "inputs": [
        {
          "internalType": "address",
          "name": "owner",
          "type": "address"
        }
      ],
      "name": "OwnableInvalidOwner",
      "type": "error"
    },
    {
      "inputs": [
        {
          "internalType": "address",
          "name": "account",
          "type": "address"
        }
      ],
      "name": "OwnableUnauthorizedAccount",
      "type": "error"
    },
    {
      "inputs": [
        {
          "internalType": "address",
          "name": "recovered",
          "type": "address"
        },
        {
          "internalType": "address",
          "name": "expected",
          "type": "address"
        }
      ],
      "name": "SignerMismatch",
      "type": "error"
    },
    {
      "inputs": [],
      "name": "UUPSUnauthorizedCallContext",
      "type": "error"
    },
    {
      "inputs": [
        {
          "internalType": "bytes32",
          "name": "slot",
          "type": "bytes32"
        }
      ],
      "name": "UUPSUnsupportedProxiableUUID",
      "type": "error"
    },
    {
      "inputs": [],
      "name": "UnauthorizedUpgrade",
      "type": "error"
    },
    {
      "anonymous": false,
      "inputs": [],
      "name": "EIP712DomainChanged",
      "type": "event"
    },
    {
      "anonymous": false,
      "inputs": [
        {
          "indexed": true,
          "internalType": "address",
          "name": "newEntryPoint",
          "type": "address"
        }
      ],
      "name": "EntryPointChanged",
      "type": "event"
    },
    {
      "anonymous": false,
      "inputs": [
        {
          "indexed": false,
          "internalType": "uint64",
          "name": "version",
          "type": "uint64"
        }
      ],
      "name": "Initialized",
      "type": "event"
    },
    {
      "anonymous": false,
      "inputs": [
        {
          "indexed": false,
          "internalType": "uint256",
          "name": "oldLimit",
          "type": "uint256"
        },
        {
          "indexed": false,
          "internalType": "uint256",
          "name": "newLimit",
          "type": "uint256"
        }
      ],
      "name": "MaxAllowedGasCostUpdated",
      "type": "event"
    },
    {
      "anonymous": false,
      "inputs": [
        {
          "indexed": true,
          "internalType": "address",
          "name": "previousOwner",
          "type": "address"
        },
        {
          "indexed": true,
          "internalType": "address",
          "name": "newOwner",
          "type": "address"
        }
      ],
      "name": "OwnershipTransferred",
      "type": "event"
    },
    {
      "anonymous": false,
      "inputs": [
        {
          "indexed": true,
          "internalType": "address",
          "name": "implementation",
          "type": "address"
        }
      ],
      "name": "Upgraded",
      "type": "event"
    },
    {
      "anonymous": false,
      "inputs": [
        {
          "indexed": false,
          "internalType": "bytes32",
          "name": "userOpHash",
          "type": "bytes32"
        },
        {
          "indexed": false,
          "internalType": "uint256",
          "name": "maxCost",
          "type": "uint256"
        },
        {
          "indexed": false,
          "internalType": "uint48",
          "name": "validUntil",
          "type": "uint48"
        },
        {
          "indexed": false,
          "internalType": "uint48",
          "name": "validAfter",
          "type": "uint48"
        }
      ],
      "name": "Validated",
      "type": "event"
    },
    {
      "anonymous": false,
      "inputs": [
        {
          "indexed": true,
          "internalType": "address",
          "name": "oldSigner",
          "type": "address"
        },
        {
          "indexed": true,
          "internalType": "address",
          "name": "newSigner",
          "type": "address"
        }
      ],
      "name": "VerifyingSignerUpdated",
      "type": "event"
    },
    {
      "inputs": [],
      "name": "UPGRADE_INTERFACE_VERSION",
      "outputs": [
        {
          "internalType": "string",
          "name": "",
          "type": "string"
        }
      ],
      "stateMutability": "view",
      "type": "function"
    },
    {
      "inputs": [],
      "name": "VERSION",
      "outputs": [
        {
          "internalType": "uint256",
          "name": "",
          "type": "uint256"
        }
      ],
      "stateMutability": "view",
      "type": "function"
    },
    {
      "inputs": [
        {
          "internalType": "uint32",
          "name": "unstakeDelaySec",
          "type": "uint32"
        }
      ],
      "name": "addStake",
      "outputs": [],
      "stateMutability": "payable",
      "type": "function"
    },
    {
      "inputs": [],
      "name": "deposit",
      "outputs": [],
      "stateMutability": "payable",
      "type": "function"
    },
    {
      "inputs": [],
      "name": "domainSeparator",
      "outputs": [
        {
          "internalType": "bytes32",
          "name": "",
          "type": "bytes32"
        }
      ],
      "stateMutability": "view",
      "type": "function"
    },
    {
      "inputs": [],
      "name": "eip712Domain",
      "outputs": [
        {
          "internalType": "bytes1",
          "name": "fields",
          "type": "bytes1"
        },
        {
          "internalType": "string",
          "name": "name",
          "type": "string"
        },
        {
          "internalType": "string",
          "name": "version",
          "type": "string"
        },
        {
          "internalType": "uint256",
          "name": "chainId",
          "type": "uint256"
        },
        {
          "internalType": "address",
          "name": "verifyingContract",
          "type": "address"
        },
        {
          "internalType": "bytes32",
          "name": "salt",
          "type": "bytes32"
        },
        {
          "internalType": "uint256[]",
          "name": "extensions",
          "type": "uint256[]"
        }
      ],
      "stateMutability": "view",
      "type": "function"
    },
    {
      "inputs": [],
      "name": "entryPoint",
      "outputs": [
        {
          "internalType": "contract IEntryPoint",
          "name": "",
          "type": "address"
        }
      ],
      "stateMutability": "view",
      "type": "function"
    },
    {
      "inputs": [],
      "name": "getDeposit",
      "outputs": [
        {
          "internalType": "uint256",
          "name": "",
          "type": "uint256"
        }
      ],
      "stateMutability": "view",
      "type": "function"
    },
    {
      "inputs": [
        {
          "internalType": "uint48",
          "name": "validUntil",
          "type": "uint48"
        },
        {
          "internalType": "uint48",
          "name": "validAfter",
          "type": "uint48"
        },
        {
          "internalType": "address",
          "name": "sender",
          "type": "address"
        },
        {
          "internalType": "uint256",
          "name": "nonce",
          "type": "uint256"
        },
        {
          "internalType": "bytes32",
          "name": "calldataHash",
          "type": "bytes32"
        }
      ],
      "name": "getHash",
      "outputs": [
        {
          "internalType": "bytes32",
          "name": "",
          "type": "bytes32"
        }
      ],
      "stateMutability": "view",
      "type": "function"
    },
    {
      "inputs": [
        {
          "internalType": "address",
          "name": "_verifyingSigner",
          "type": "address"
        },
        {
          "internalType": "address",
          "name": "_owner",
          "type": "address"
        }
      ],
      "name": "initialize",
      "outputs": [],
      "stateMutability": "nonpayable",
      "type": "function"
    },
    {
      "inputs": [],
      "name": "maxAllowedGasCost",
      "outputs": [
        {
          "internalType": "uint256",
          "name": "",
          "type": "uint256"
        }
      ],
      "stateMutability": "view",
      "type": "function"
    },
    {
      "inputs": [],
      "name": "owner",
      "outputs": [
        {
          "internalType": "address",
          "name": "",
          "type": "address"
        }
      ],
      "stateMutability": "view",
      "type": "function"
    },
    {
      "inputs": [
        {
          "internalType": "enum IPaymaster.PostOpMode",
          "name": "mode",
          "type": "uint8"
        },
        {
          "internalType": "bytes",
          "name": "context",
          "type": "bytes"
        },
        {
          "internalType": "uint256",
          "name": "actualGasCost",
          "type": "uint256"
        },
        {
          "internalType": "uint256",
          "name": "actualUserOpFeePerGas",
          "type": "uint256"
        }
      ],
      "name": "postOp",
      "outputs": [],
      "stateMutability": "nonpayable",
      "type": "function"
    },
    {
      "inputs": [],
      "name": "proxiableUUID",
      "outputs": [
        {
          "internalType": "bytes32",
          "name": "",
          "type": "bytes32"
        }
      ],
      "stateMutability": "view",
      "type": "function"
    },
    {
      "inputs": [],
      "name": "reinitializeEIP712",
      "outputs": [],
      "stateMutability": "nonpayable",
      "type": "function"
    },
    {
      "inputs": [],
      "name": "renounceOwnership",
      "outputs": [],
      "stateMutability": "nonpayable",
      "type": "function"
    },
    {
      "inputs": [
        {
          "internalType": "uint256",
          "name": "_maxAllowedGasCost",
          "type": "uint256"
        }
      ],
      "name": "setMaxAllowedGasCost",
      "outputs": [],
      "stateMutability": "nonpayable",
      "type": "function"
    },
    {
      "inputs": [
        {
          "internalType": "address",
          "name": "_verifyingSigner",
          "type": "address"
        }
      ],
      "name": "setVerifyingSigner",
      "outputs": [],
      "stateMutability": "nonpayable",
      "type": "function"
    },
    {
      "inputs": [
        {
          "internalType": "address",
          "name": "newOwner",
          "type": "address"
        }
      ],
      "name": "transferOwnership",
      "outputs": [],
      "stateMutability": "nonpayable",
      "type": "function"
    },
    {
      "inputs": [],
      "name": "unlockStake",
      "outputs": [],
      "stateMutability": "nonpayable",
      "type": "function"
    },
    {
      "inputs": [
        {
          "internalType": "address",
          "name": "newImplementation",
          "type": "address"
        },
        {
          "internalType": "bytes",
          "name": "data",
          "type": "bytes"
        }
      ],
      "name": "upgradeToAndCall",
      "outputs": [],
      "stateMutability": "payable",
      "type": "function"
    },
    {
      "inputs": [
        {
          "components": [
            {
              "internalType": "address",
              "name": "sender",
              "type": "address"
            },
            {
              "internalType": "uint256",
              "name": "nonce",
              "type": "uint256"
            },
            {
              "internalType": "bytes",
              "name": "initCode",
              "type": "bytes"
            },
            {
              "internalType": "bytes",
              "name": "callData",
              "type": "bytes"
            },
            {
              "internalType": "bytes32",
              "name": "accountGasLimits",
              "type": "bytes32"
            },
            {
              "internalType": "uint256",
              "name": "preVerificationGas",
              "type": "uint256"
            },
            {
              "internalType": "bytes32",
              "name": "gasFees",
              "type": "bytes32"
            },
            {
              "internalType": "bytes",
              "name": "paymasterAndData",
              "type": "bytes"
            },
            {
              "internalType": "bytes",
              "name": "signature",
              "type": "bytes"
            }
          ],
          "internalType": "struct PackedUserOperation",
          "name": "userOp",
          "type": "tuple"
        },
        {
          "internalType": "bytes32",
          "name": "userOpHash",
          "type": "bytes32"
        },
        {
          "internalType": "uint256",
          "name": "maxCost",
          "type": "uint256"
        }
      ],
      "name": "validatePaymasterUserOp",
      "outputs": [
        {
          "internalType": "bytes",
          "name": "context",
          "type": "bytes"
        },
        {
          "internalType": "uint256",
          "name": "validationData",
          "type": "uint256"
        }
      ],
      "stateMutability": "nonpayable",
      "type": "function"
    },
    {
      "inputs": [],
      "name": "verifyingSigner",
      "outputs": [
        {
          "internalType": "address",
          "name": "",
          "type": "address"
        }
      ],
      "stateMutability": "view",
      "type": "function"
    },
    {
      "inputs": [
        {
          "internalType": "address payable",
          "name": "withdrawAddress",
          "type": "address"
        }
      ],
      "name": "withdrawStake",
      "outputs": [],
      "stateMutability": "nonpayable",
      "type": "function"
    },
    {
      "inputs": [
        {
          "internalType": "address payable",
          "name": "withdrawAddress",
          "type": "address"
        },
        {
          "internalType": "uint256",
          "name": "amount",
          "type": "uint256"
        }
      ],
      "name": "withdrawTo",
      "outputs": [],
      "stateMutability": "nonpayable",
      "type": "function"
    },
    {
      "stateMutability": "payable",
      "type": "receive"
    }
  ],
  "bytecode": "0x60c0604090808252346200027857806200239f80380380916200002382856200027d565b83396020928391810103126200027857516001600160a01b03808216908183036200027857306080523315620002605760008054336001600160a01b031982168117835587519492938793869360249385939091167f8be0079c531659141344cd1fd0a4f28419497f9722a3daafe3b4186f6b6457e08880a36301ffc9a760e01b825263122a0e9b60e31b60048301525afa918215620002545781926200020c575b505015620001c95760a0527ff0c57e16840df040f15088dc2f81fe391c3923bec73e23a9662efc9c229c6a009081549160ff83851c16620001b8576001600160401b03906002600160401b03198483160162000175575b84516120e79081620002b8823960805181818161094d0152610a71015260a0518181816103a601528181610458015281816104eb0152818161055b0152818161148a01528181611511015281816117f301526118db0152f35b6001600160401b0319909316811790925582519182527fc7f505b2f371ae2175ee4913f4499e1f2633a7b5936321eed1cdaeb6115181d291a1388080806200011c565b835163f92ee8a960e01b8152600490fd5b50606491519062461bcd60e51b82526004820152601e60248201527f49456e747279506f696e7420696e74657266616365206d69736d6174636800006044820152fd5b9091508381813d83116200024c575b6200022781836200027d565b810103126200024857519081151582036200024557503880620000c5565b80fd5b5080fd5b503d6200021b565b508451903d90823e3d90fd5b8451631e4fbdf760e01b815260006004820152602490fd5b600080fd5b601f909101601f19168101906001600160401b03821190821017620002a157604052565b634e487b7160e01b600052604160045260246000fdfe60406080815260049081361015610028575b5050361561001e57600080fd5b6100266117f1565b005b600091823560e01c908163030aa0c3146115745781630396cb60146114e757838263205c28781461145d5750816323d9ac9b146114345781633a7c1b9114611092578163485cc95514610c625781634f1ef28614610a2157816352b7512c146109b157816352d1902d14610938578163715018a6146108de5781637c627b211461088157816384b0196e146105fb5781638da5cb5b146105d3578163ad3cb1cc1461058a578163b0d691fe1461054657838263bb9fe6bf146104ce578263c23a5cea1461042a57508163c399ec8814610377578163d0e30db014610363578163d29b068d14610344578163dee7961314610251578163f2fde38b146101f757508063f5cba98c14610189578063f698da25146101665763ffa1ad740361001157346101625781600319360112610162576020905160058152f35b5080fd5b5034610162578160031936011261016257602090610182611bc1565b9051908152f35b82346101f45760203660031901126101f4576101a36115cf565b6101ab611866565b600180546001600160a01b039283166001600160a01b0319821681179092559091167fdeee0b46266dc0734b009b2ca66e2ac28d5fd72d38506a3fe462865f00c5df4e8380a380f35b80fd5b90503461024d57602036600319011261024d576102126115cf565b9161021b611866565b6001600160a01b03831615610237578361023484611892565b80f35b51631e4fbdf760e01b8152908101839052602490fd5b8280fd5b90503461024d57602036600319011261024d5780359061026f611866565b811561030157670de0b6b3a764000082116102be5750907f264b162d0bab716ddc0e70a414b75d9edca1aea7c04b9a14b8bafe80236db22891600254908060025582519182526020820152a180f35b606490602084519162461bcd60e51b8352820152601760248201527f47617320636f7374206c696d697420746f6f20686967680000000000000000006044820152fd5b606490602084519162461bcd60e51b8352820152601d60248201527f47617320636f7374206c696d69742063616e6e6f74206265207a65726f0000006044820152fd5b5050346101625781600319360112610162576020906002549051908152f35b83806003193601126101f4576102346117f1565b9190503461024d578260031936011261024d5780516370a0823160e01b815230928101929092526020826024817f00000000000000000000000000000000000000000000000000000000000000006001600160a01b03165afa9182156104205783926103e8575b6020838351908152f35b9091506020813d602011610418575b8161040460209383611644565b8101031261024d57602092505190386103de565b3d91506103f7565b81513d85823e3d90fd5b809184346104ca5760203660031901126104ca576104466115cf565b61044e611866565b6001600160a01b037f00000000000000000000000000000000000000000000000000000000000000008116803b156104c6578592836024928651978895869463611d2e7560e11b865216908401525af19081156104bd57506104ad5750f35b6104b6906115e5565b6101f45780f35b513d84823e3d90fd5b8580fd5b5050fd5b809184346104ca57826003193601126104ca576104e9611866565b7f00000000000000000000000000000000000000000000000000000000000000006001600160a01b031691823b1561054157815163bb9fe6bf60e01b81529284918491829084905af19081156104bd57506104ad5750f35b505050fd5b505034610162578160031936011261016257517f00000000000000000000000000000000000000000000000000000000000000006001600160a01b03168152602090f35b50503461016257816003193601126101625780516105cf916105ab82611629565b60058252640352e302e360dc1b6020830152519182916020835260208301906116b7565b0390f35b505034610162578160031936011261016257905490516001600160a01b039091168152602090f35b90503461024d578260031936011261024d5760008051602061203283398151915254158061086a575b156108305750805190600092600080516020611ff28339815191528054948461064c87611b46565b91828252602093600198856001821691826000146108105750506001146107c4575b5061067b92500385611644565b82519283600060008051602061201283398151915280549061069c82611b46565b91828552866001821691826000146107a257505060011461074e575b505061070692916106cd919896980388611644565b8051966106d98861160e565b8488526106f9825197600f60f81b895260e0868a015260e08901906116b7565b91878303908801526116b7565b904660608601523060808601528260a086015284820360c08601528080875193848152019601925b82811061073b5785870386f35b835187529581019592810192840161072e565b9150929150600052848360008051602061209283398151915293896000955b828710610788575093949293505090820101816106cd6106b8565b80548a8801850152929095019488935086928b910161076d565b60ff19168682015292151560051b850190920192508391506106cd90506106b8565b9150506000528482600080516020612052833981519152886000915b8583106107f757505061067b93508201013861066e565b80919294505483858b01015201910183908888936107e0565b60ff19168582015261067b95151560051b850101925038915061066e9050565b6020606492519162461bcd60e51b835282015260156024820152741152540dcc4c8e88155b9a5b9a5d1a585b1a5e9959605a1b6044820152fd5b506000805160206120728339815191525415610624565b8390346101625760803660031901126101625760038135101561016257602435906001600160401b03908183116108da57366023840112156108da5782013590811161024d57369101602401116101f4576102346118d9565b8380fd5b83346101f457806003193601126101f4576108f7611866565b600080546001600160a01b0319811682556001600160a01b03167f8be0079c531659141344cd1fd0a4f28419497f9722a3daafe3b4186f6b6457e08280a380f35b8284346101f457806003193601126101f457507f00000000000000000000000000000000000000000000000000000000000000006001600160a01b031630036109a457602090517f360894a13ba1a3210667c828492db98dca3e2076cc3735a920a3ca505d382bbc8152f35b5163703e46dd60e11b8152fd5b90503461024d57600319906060368301126108da578035916001600160401b038311610a1d576101209083360301126108da57906109ff916109f16118d9565b60443591602435910161197a565b8251838152928392610a13918401906116b7565b9060208301520390f35b8480fd5b9180915060031936011261024d57610a376115cf565b906024356001600160401b038111610a1d5736602382011215610a1d57610a679036906024818701359101611680565b6001600160a01b037f00000000000000000000000000000000000000000000000000000000000000008116308114908115610c34575b50610c2457610aaa611866565b82516352d1902d60e01b81529084169360209182818881895afa889181610bf1575b50610ae8578451634c9c8ce360e01b8152808801879052602490fd5b7f360894a13ba1a3210667c828492db98dca3e2076cc3735a920a3ca505d382bbc96929591939690818103610bdb5750833b15610bc45780546001600160a01b0319168217905583518792917fbc7cd75a20ee27fd9adebab32041f755214dbc6bffa90cc0225b39da2e5c2d3b8480a2865115610ba7575050808585610b9997519101845af4913d15610b9d573d610b8b610b8282611665565b92519283611644565b81528581943d92013e611efe565b5080f35b5060609250611efe565b9450945050505034610bb857505080f35b63b398979f60e01b8152fd5b8451634c9c8ce360e01b8152808401839052602490fd5b83602491875191632a87526960e21b8352820152fd5b9091508381813d8311610c1d575b610c098183611644565b81010312610c1957519038610acc565b8880fd5b503d610bff565b825163703e46dd60e11b81528590fd5b9050817f360894a13ba1a3210667c828492db98dca3e2076cc3735a920a3ca505d382bbc5416141538610a9d565b90503461024d578160031936011261024d57610c7c6115cf565b6001600160a01b0391602435808416900361108d577ff0c57e16840df040f15088dc2f81fe391c3923bec73e23a9662efc9c229c6a009283549260ff84871c1615926001600160401b0380861695861580611086575b6001809814908161107c575b159081611073575b506110635767ffffffffffffffff1981168717885585611044575b50610d0a611b80565b610d1261179b565b91610d1b6117d4565b92610d24611b80565b610d2c611b80565b805183811161103157808c600080516020611ff283398151915293610d518554611b46565b85601f8211610fcc575b5050602091601f8411600114610f615792610f56575b5050600019600383901b1c191690891b1790555b8251918211610f4357508060008051602061201283398151915292610daa8454611b46565b601f8111610ee6575b50602090601f8311600114610e7b578b92610e70575b5050600019600383901b1c191690861b1790555b86600080516020612032833981519152558660008051602061207283398151915255166bffffffffffffffffffffffff60a01b835416178255662386f26fc10000600255610e2c602435611892565b610e34578380f35b7fc7f505b2f371ae2175ee4913f4499e1f2633a7b5936321eed1cdaeb6115181d29260209260ff60401b19815416905551908152a13880808380f35b015190503880610dc9565b848c528893506000805160206120928339815191529190601f1984168d5b818110610ece57508411610eb5575b505050811b019055610ddd565b015160001960f88460031b161c19169055388080610ea8565b8284015185558b969094019360209384019301610e99565b909150838b52600080516020612092833981519152601f840160051c81019160208510610f39575b84939291601f8b920160051c01915b828110610f2b575050610db3565b8d81558594508a9101610f1d565b9091508190610f0e565b634e487b7160e01b8a5260419052602489fd5b015190503880610d71565b91908c9450601f198416868452600080516020612052833981519152935b818110610fb457508411610f9b575b505050811b019055610d85565b015160001960f88460031b161c19169055388080610f8e565b8284015185558e969094019360209384019301610f7f565b9193509152600080516020612052833981519152601f840160051c81019160208510611027575b918f92859492601f8f920160051c01915b82811061101357505085610d5b565b809294919395505501918e918c8594611004565b9091508190610ff3565b634e487b7160e01b8c526041835260248cfd5b68ffffffffffffffffff19166801000000000000000117875538610d01565b885163f92ee8a960e01b81528390fd5b90501538610ce6565b303b159150610cde565b5085610cd2565b600080fd5b9190503461024d578260031936011261024d577ff0c57e16840df040f15088dc2f81fe391c3923bec73e23a9662efc9c229c6a00805460ff81841c168015611421575b6114125768ffffffffffffffffff1916680100000000000000041781556110fa61179b565b6111026117d4565b9061110b611b80565b611113611b80565b8051906001600160401b03918281116113ff57600080516020611ff283398151915290806111418354611b46565b93601f948581116113a6575b50602090858311600114611337578b9261132c575b50508160011b916000199060031b1c19161790555b8251918211611319576000805160206120128339815191529261119a8454611b46565b8281116112cc575b50602091831160011461123657918060209694927fc7f505b2f371ae2175ee4913f4499e1f2633a7b5936321eed1cdaeb6115181d29896948a9261122b575b50508160011b916000199060031b1c19161790555b8560008051602061203283398151915255856000805160206120728339815191525560ff60401b19815416905551908152a180f35b0151905038806111e1565b8388526000805160206120928339815191529190601f198416895b8181106112b457509260019285927fc7f505b2f371ae2175ee4913f4499e1f2633a7b5936321eed1cdaeb6115181d29a989660209a98961061129b575b505050811b0190556111f6565b015160001960f88460031b161c1916905538808061128e565b92936020600181928786015181550195019301611251565b8489526000805160206120928339815191528380860160051c82019260208710611310575b0160051c01905b81811061130557506111a2565b8981556001016112f8565b925081926112f1565b634e487b7160e01b875260418652602487fd5b015190503880611162565b848c526000805160206120528339815191529250601f1984168c5b81811061138e5750908460019594939210611375575b505050811b019055611177565b015160001960f88460031b161c19169055388080611368565b92936020600181928786015181550195019301611352565b909150838b526000805160206120528339815191528580850160051c820192602086106113f6575b9085949392910160051c01905b8181106113e8575061114d565b8c81558493506001016113db565b925081926113ce565b634e487b7160e01b885260418752602488fd5b50505163f92ee8a960e01b8152fd5b50836001600160401b03821610156110d5565b50503461016257816003193601126101625760015490516001600160a01b039091168152602090f35b809184346104ca57806003193601126104ca576114786115cf565b611480611866565b6001600160a01b037f00000000000000000000000000000000000000000000000000000000000000008116803b156104c6578592836044928651978895869463040b850f60e31b8652169084015260243560248401525af19081156104bd57506104ad5750f35b919050602036600319011261024d5782823563ffffffff81168091036101625761150f611866565b7f00000000000000000000000000000000000000000000000000000000000000006001600160a01b031693843b1561024d5760249084519586938492621cb65b60e51b845283015234905af19081156104bd575061156b575080f35b610234906115e5565b90503461024d5760a036600319011261024d573565ffffffffffff9283821682036101f45760243593841684036101f457604435906001600160a01b03821682036101f45750926101829160209460843592606435926116f7565b600435906001600160a01b038216820361108d57565b6001600160401b0381116115f857604052565b634e487b7160e01b600052604160045260246000fd5b602081019081106001600160401b038211176115f857604052565b604081019081106001600160401b038211176115f857604052565b90601f801991011681019081106001600160401b038211176115f857604052565b6001600160401b0381116115f857601f01601f191660200190565b92919261168c82611665565b9161169a6040519384611644565b82948184528183011161108d578281602093846000960137010152565b919082519283825260005b8481106116e3575050826000602080949584010152601f8019910116010190565b6020818301810151848301820152016116c2565b93919290926040519460208601947f30557ab04611e84b0a19f25c0d489ab1ae601b717428d689231b0865ec5c08ce865265ffffffffffff809216604088015216606086015260018060a01b0316608085015260a084015260c083015260c0825260e08201918083106001600160401b038411176115f857604292604052519020611780611bc1565b906040519161190160f01b8352600283015260228201522090565b604051906117a882611629565b601b82527f5369676e6174757265566572696679696e675061796d617374657200000000006020830152565b604051906117e182611629565b60018252603560f81b6020830152565b7f00000000000000000000000000000000000000000000000000000000000000006001600160a01b0316803b1561108d5760006024916040519283809263b760faf960e01b825230600483015234905af1801561185a5761184f5750565b611858906115e5565b565b6040513d6000823e3d90fd5b6000546001600160a01b0316330361187a57565b60405163118cdaa760e01b8152336004820152602490fd5b600080546001600160a01b039283166001600160a01b03198216811783559216907f8be0079c531659141344cd1fd0a4f28419497f9722a3daafe3b4186f6b6457e09080a3565b7f00000000000000000000000000000000000000000000000000000000000000006001600160a01b0316330361190b57565b60405162461bcd60e51b815260206004820152601560248201527414d95b99195c881b9bdd08115b9d1c9e541bda5b9d605a1b6044820152606490fd5b903590601e198136030182121561108d57018035906001600160401b03821161108d5760200191813603831361108d57565b909291600254808211611b28575061199560e0830183611948565b90948160341161108d57603319820193604d8510611b16578460061161108d576034870135948560d01c90600c1161108d57603a880135978860d01c92604095603f190160418103611aff576001600160a01b039180359190838316830361108d57611a4994611a3082611a40956020611a1f611a186060611a3a980185611948565b3691611680565b818151910120920135908b8b6116f7565b928a369201611680565b90611c36565b90939193611c72565b8060015416911603611ac657916080917fa832915335bfbcdcce15f4da2c2a11df06a8f97105e9be5968c9f6f42bd10366938551928352866020840152858301526060820152a15190602082015260208152611aa481611629565b9260309190911c65ffffffffffff60a01b166001600160d01b03199091161790565b505050600192915051611ad88161160e565b600081529360309190911c65ffffffffffff60a01b166001600160d01b0319909116171790565b60249087519063058676ad60e31b82526004820152fd5b60405163097637e960e21b8152600490fd5b60449250604051916332e1243560e11b835260048301526024820152fd5b90600182811c92168015611b76575b6020831014611b6057565b634e487b7160e01b600052602260045260246000fd5b91607f1691611b55565b60ff7ff0c57e16840df040f15088dc2f81fe391c3923bec73e23a9662efc9c229c6a005460401c1615611baf57565b604051631afcd79f60e31b8152600490fd5b611bc9611cf7565b611bd1611e0d565b6040519060208201927f8b73c3c69bb8fe3d512ecc4cf759cc79239f7b179b0ffacaa9a75d522b39400f8452604083015260608201524660808201523060a082015260a0815260c081018181106001600160401b038211176115f85760405251902090565b8151919060418303611c6757611c6092506020820151906060604084015193015160001a90611f61565b9192909190565b505060009160029190565b6004811015611ce15780611c84575050565b60018103611c9e5760405163f645eedf60e01b8152600490fd5b60028103611cbf5760405163fce698f760e01b815260048101839052602490fd5b600314611cc95750565b602490604051906335e2f38360e21b82526004820152fd5b634e487b7160e01b600052602160045260246000fd5b604051600090600080516020611ff28339815191529181835491611d1a83611b46565b928383526020906020840196600191600181169081600014611de95750600114611d9a575b505050611d4e92500382611644565b51908115611d5a572090565b5050600080516020612032833981519152548015611d755790565b507fc5d2460186f7233c927e7db2dcc703c0e500b653ca82273b7bfad8045d85a47090565b60009081526000805160206120528339815191529590935091905b828410611dd15750611d4e945050508101602001388080611d3f565b85548785018301529485019486945092810192611db5565b9250505060209250611d4e94915060ff19168652151560051b820101388080611d3f565b6040516000906000805160206120128339815191529181835491611e3083611b46565b928383526020906020840196600191600181169081600014611eda5750600114611e8b575b505050611e6492500382611644565b51908115611e70572090565b5050600080516020612072833981519152548015611d755790565b60009081526000805160206120928339815191529590935091905b828410611ec25750611e64945050508101602001388080611e55565b85548785018301529485019486945092810192611ea6565b9250505060209250611e6494915060ff19168652151560051b820101388080611e55565b90611f255750805115611f1357805190602001fd5b60405163d6bda27560e01b8152600490fd5b81511580611f58575b611f36575090565b604051639996b31560e01b81526001600160a01b039091166004820152602490fd5b50803b15611f2e565b91907f7fffffffffffffffffffffffffffffff5d576e7357a4501ddfe92f46681b20a08411611fe557926020929160ff608095604051948552168484015260408301526060820152600092839182805260015afa15611fd95780516001600160a01b03811615611fd057918190565b50809160019190565b604051903d90823e3d90fd5b5050506000916003919056fea16a46d94261c7517cc8ff89f61c0ce93598e3c849801011dee649a6a557d102a16a46d94261c7517cc8ff89f61c0ce93598e3c849801011dee649a6a557d103a16a46d94261c7517cc8ff89f61c0ce93598e3c849801011dee649a6a557d10042ad5d3e1f2e6e70edcf6d991b8a3023d3fca8047a131592f9edb9fd9b89d57da16a46d94261c7517cc8ff89f61c0ce93598e3c849801011dee649a6a557d1015f9ce34815f8e11431c7bb75a8e6886a91478f7ffc1dbb0a98dc240fddd76b75a2646970667358221220a8e437ff3010e670f819aef612ef3e544abf0c5d5a8359964d9352727e262a2e64736f6c63430008170033",
  "linkReferences": {},
  "deployedLinkReferences": {}
}