{
  "_format": "hh-sol-artifact-1",
  "contractName": "SignatureVerifyingPaymasterV07",
  "sourceName": "contracts/SignatureVerifyingPaymasterV07.sol",
  "abi": [
    {
      "inputs": [
        {
          "internalType": "contract IEntryPoint",
          "name": "_entryPoint",
          "type": "address"
        },
        {
          "internalType": "address",
          "name": "_verifyingSigner",
          "type": "address"
        },
        {
          "internalType": "address",
          "name": "_owner",
          "type": "address"
        }
      ],
      "stateMutability": "nonpayable",
      "type": "constructor"
    },
    {
      "inputs": [],
      "name": "ECDSAInvalidSignature",
      "type": "error"
    },
    {
      "inputs": [
        {
          "internalType": "uint256",
          "name": "length",
          "type": "uint256"
        }
      ],
      "name": "ECDSAInvalidSignatureLength",
      "type": "error"
    },
    {
      "inputs": [
        {
          "internalType": "bytes32",
          "name": "s",
          "type": "bytes32"
        }
      ],
      "name": "ECDSAInvalidSignatureS",
      "type": "error"
    },
    {
      "inputs": [],
      "name": "InvalidPaymasterData",
      "type": "error"
    },
    {
      "inputs": [
        {
          "internalType": "uint256",
          "name": "length",
          "type": "uint256"
        }
      ],
      "name": "InvalidSignatureLength",
      "type": "error"
    },
    {
      "inputs": [
        {
          "internalType": "address",
          "name": "owner",
          "type": "address"
        }
      ],
      "name": "OwnableInvalidOwner",
      "type": "error"
    },
    {
      "inputs": [
        {
          "internalType": "address",
          "name": "account",
          "type": "address"
        }
      ],
      "name": "OwnableUnauthorizedAccount",
      "type": "error"
    },
    {
      "inputs": [
        {
          "internalType": "address",
          "name": "recovered",
          "type": "address"
        },
        {
          "internalType": "address",
          "name": "expected",
          "type": "address"
        }
      ],
      "name": "SignerMismatch",
      "type": "error"
    },
    {
      "anonymous": false,
      "inputs": [
        {
          "indexed": true,
          "internalType": "address",
          "name": "previousOwner",
          "type": "address"
        },
        {
          "indexed": true,
          "internalType": "address",
          "name": "newOwner",
          "type": "address"
        }
      ],
      "name": "OwnershipTransferred",
      "type": "event"
    },
    {
      "inputs": [
        {
          "internalType": "uint32",
          "name": "unstakeDelaySec",
          "type": "uint32"
        }
      ],
      "name": "addStake",
      "outputs": [],
      "stateMutability": "payable",
      "type": "function"
    },
    {
      "inputs": [],
      "name": "deposit",
      "outputs": [],
      "stateMutability": "payable",
      "type": "function"
    },
    {
      "inputs": [],
      "name": "entryPoint",
      "outputs": [
        {
          "internalType": "contract IEntryPoint",
          "name": "",
          "type": "address"
        }
      ],
      "stateMutability": "view",
      "type": "function"
    },
    {
      "inputs": [],
      "name": "getDeposit",
      "outputs": [
        {
          "internalType": "uint256",
          "name": "",
          "type": "uint256"
        }
      ],
      "stateMutability": "view",
      "type": "function"
    },
    {
      "inputs": [
        {
          "internalType": "uint48",
          "name": "validUntil",
          "type": "uint48"
        },
        {
          "internalType": "uint48",
          "name": "validAfter",
          "type": "uint48"
        },
        {
          "internalType": "address",
          "name": "paymasterAddress",
          "type": "address"
        },
        {
          "internalType": "address",
          "name": "senderAddress",
          "type": "address"
        }
      ],
      "name": "getHash",
      "outputs": [
        {
          "internalType": "bytes32",
          "name": "",
          "type": "bytes32"
        }
      ],
      "stateMutability": "view",
      "type": "function"
    },
    {
      "inputs": [],
      "name": "owner",
      "outputs": [
        {
          "internalType": "address",
          "name": "",
          "type": "address"
        }
      ],
      "stateMutability": "view",
      "type": "function"
    },
    {
      "inputs": [
        {
          "internalType": "bytes",
          "name": "paymasterData",
          "type": "bytes"
        }
      ],
      "name": "parsePaymasterData",
      "outputs": [
        {
          "internalType": "uint48",
          "name": "validUntil",
          "type": "uint48"
        },
        {
          "internalType": "uint48",
          "name": "validAfter",
          "type": "uint48"
        },
        {
          "internalType": "bytes",
          "name": "signature",
          "type": "bytes"
        }
      ],
      "stateMutability": "pure",
      "type": "function"
    },
    {
      "inputs": [
        {
          "internalType": "enum IPaymaster.PostOpMode",
          "name": "mode",
          "type": "uint8"
        },
        {
          "internalType": "bytes",
          "name": "context",
          "type": "bytes"
        },
        {
          "internalType": "uint256",
          "name": "actualGasCost",
          "type": "uint256"
        },
        {
          "internalType": "uint256",
          "name": "actualUserOpFeePerGas",
          "type": "uint256"
        }
      ],
      "name": "postOp",
      "outputs": [],
      "stateMutability": "nonpayable",
      "type": "function"
    },
    {
      "inputs": [],
      "name": "renounceOwnership",
      "outputs": [],
      "stateMutability": "nonpayable",
      "type": "function"
    },
    {
      "inputs": [
        {
          "internalType": "address",
          "name": "_verifyingSigner",
          "type": "address"
        }
      ],
      "name": "setVerifyingSigner",
      "outputs": [],
      "stateMutability": "nonpayable",
      "type": "function"
    },
    {
      "inputs": [
        {
          "internalType": "address",
          "name": "newOwner",
          "type": "address"
        }
      ],
      "name": "transferOwnership",
      "outputs": [],
      "stateMutability": "nonpayable",
      "type": "function"
    },
    {
      "inputs": [],
      "name": "unlockStake",
      "outputs": [],
      "stateMutability": "nonpayable",
      "type": "function"
    },
    {
      "inputs": [
        {
          "components": [
            {
              "internalType": "address",
              "name": "sender",
              "type": "address"
            },
            {
              "internalType": "uint256",
              "name": "nonce",
              "type": "uint256"
            },
            {
              "internalType": "bytes",
              "name": "initCode",
              "type": "bytes"
            },
            {
              "internalType": "bytes",
              "name": "callData",
              "type": "bytes"
            },
            {
              "internalType": "bytes32",
              "name": "accountGasLimits",
              "type": "bytes32"
            },
            {
              "internalType": "uint256",
              "name": "preVerificationGas",
              "type": "uint256"
            },
            {
              "internalType": "bytes32",
              "name": "gasFees",
              "type": "bytes32"
            },
            {
              "internalType": "bytes",
              "name": "paymasterAndData",
              "type": "bytes"
            },
            {
              "internalType": "bytes",
              "name": "signature",
              "type": "bytes"
            }
          ],
          "internalType": "struct PackedUserOperation",
          "name": "userOp",
          "type": "tuple"
        },
        {
          "internalType": "bytes32",
          "name": "userOpHash",
          "type": "bytes32"
        },
        {
          "internalType": "uint256",
          "name": "maxCost",
          "type": "uint256"
        }
      ],
      "name": "validatePaymasterUserOp",
      "outputs": [
        {
          "internalType": "bytes",
          "name": "context",
          "type": "bytes"
        },
        {
          "internalType": "uint256",
          "name": "validationData",
          "type": "uint256"
        }
      ],
      "stateMutability": "nonpayable",
      "type": "function"
    },
    {
      "inputs": [],
      "name": "verifyingSigner",
      "outputs": [
        {
          "internalType": "address",
          "name": "",
          "type": "address"
        }
      ],
      "stateMutability": "view",
      "type": "function"
    },
    {
      "inputs": [
        {
          "internalType": "address payable",
          "name": "withdrawAddress",
          "type": "address"
        }
      ],
      "name": "withdrawStake",
      "outputs": [],
      "stateMutability": "nonpayable",
      "type": "function"
    },
    {
      "inputs": [
        {
          "internalType": "address payable",
          "name": "withdrawAddress",
          "type": "address"
        },
        {
          "internalType": "uint256",
          "name": "amount",
          "type": "uint256"
        }
      ],
      "name": "withdrawTo",
      "outputs": [],
      "stateMutability": "nonpayable",
      "type": "function"
    }
  ],
  "bytecode": "0x60a06040523480156200001157600080fd5b506040516200155d3803806200155d8339810160408190526200003491620001d6565b8233806200005d57604051631e4fbdf760e01b8152600060048201526024015b60405180910390fd5b6200006881620000ad565b506200007481620000fd565b6001600160a01b03908116608052600180546001600160a01b031916918416919091179055620000a481620000ad565b50505062000255565b600080546001600160a01b038381166001600160a01b0319831681178455604051919092169283917f8be0079c531659141344cd1fd0a4f28419497f9722a3daafe3b4186f6b6457e09190a35050565b6040516301ffc9a760e01b815263122a0e9b60e31b60048201526001600160a01b038216906301ffc9a790602401602060405180830381865afa15801562000149573d6000803e3d6000fd5b505050506040513d601f19601f820116820180604052508101906200016f91906200022a565b620001bd5760405162461bcd60e51b815260206004820152601e60248201527f49456e747279506f696e7420696e74657266616365206d69736d617463680000604482015260640162000054565b50565b6001600160a01b0381168114620001bd57600080fd5b600080600060608486031215620001ec57600080fd5b8351620001f981620001c0565b60208501519093506200020c81620001c0565b60408501519092506200021f81620001c0565b809150509250925092565b6000602082840312156200023d57600080fd5b815180151581146200024e57600080fd5b9392505050565b6080516112b4620002a9600039600081816102af015281816103850152818161041c01528181610554015281816105ee0152818161065e015281816106eb015281816107d8015261086201526112b46000f3fe6080604052600436106100f35760003560e01c80638da5cb5b1161008a578063c399ec8811610059578063c399ec8814610306578063d0e30db01461031b578063f2fde38b14610323578063f5cba98c1461034357600080fd5b80638da5cb5b1461027f578063b0d691fe1461029d578063bb9fe6bf146102d1578063c23a5cea146102e657600080fd5b8063715018a6116100c6578063715018a6146101985780637c627b21146101ad57806381e4d81d146101cd5780638224225c146101fd57600080fd5b80630396cb60146100f8578063205c28781461010d57806323d9ac9b1461012d57806352b7512c1461016a575b600080fd5b61010b610106366004610da1565b610363565b005b34801561011957600080fd5b5061010b610128366004610dda565b6103ee565b34801561013957600080fd5b5060015461014d906001600160a01b031681565b6040516001600160a01b0390911681526020015b60405180910390f35b34801561017657600080fd5b5061018a610185366004610e06565b610460565b604051610161929190610e5a565b3480156101a457600080fd5b5061010b610484565b3480156101b957600080fd5b5061010b6101c8366004610ef8565b610498565b3480156101d957600080fd5b506101ed6101e8366004610f63565b6104a7565b6040516101619493929190610fa5565b34801561020957600080fd5b50610271610218366004611005565b6040805165ffffffffffff95861660208083019190915294909516858201524660608601526001600160a01b039283166080860152911660a0808501919091528151808503909101815260c09093019052815191012090565b604051908152602001610161565b34801561028b57600080fd5b506000546001600160a01b031661014d565b3480156102a957600080fd5b5061014d7f000000000000000000000000000000000000000000000000000000000000000081565b3480156102dd57600080fd5b5061010b61054a565b3480156102f257600080fd5b5061010b610301366004611061565b6105c7565b34801561031257600080fd5b50610271610646565b61010b6106d6565b34801561032f57600080fd5b5061010b61033e366004611061565b610738565b34801561034f57600080fd5b5061010b61035e366004611061565b610776565b61036b6107a0565b604051621cb65b60e51b815263ffffffff821660048201527f00000000000000000000000000000000000000000000000000000000000000006001600160a01b031690630396cb609034906024016000604051808303818588803b1580156103d257600080fd5b505af11580156103e6573d6000803e3d6000fd5b505050505050565b6103f66107a0565b60405163040b850f60e31b81526001600160a01b038381166004830152602482018390527f0000000000000000000000000000000000000000000000000000000000000000169063205c287890604401600060405180830381600087803b1580156103d257600080fd5b6060600061046c6107cd565b61047785858561083d565b915091505b935093915050565b61048c6107a0565b6104966000610b04565b565b6104a06107cd565b5050505050565b6000803681604d8510156104ce5760405163097637e960e21b815260040160405180910390fd5b6104dc60066000878961107e565b6104e5916110a8565b60d01c93506104f8600c6006878961107e565b610501916110a8565b60d01c925061051385600c818961107e565b9092509050604181146105415760405163058676ad60e31b8152600481018290526024015b60405180910390fd5b92959194509250565b6105526107a0565b7f00000000000000000000000000000000000000000000000000000000000000006001600160a01b031663bb9fe6bf6040518163ffffffff1660e01b8152600401600060405180830381600087803b1580156105ad57600080fd5b505af11580156105c1573d6000803e3d6000fd5b50505050565b6105cf6107a0565b60405163611d2e7560e11b81526001600160a01b0382811660048301527f0000000000000000000000000000000000000000000000000000000000000000169063c23a5cea90602401600060405180830381600087803b15801561063257600080fd5b505af11580156104a0573d6000803e3d6000fd5b6040516370a0823160e01b81523060048201526000907f00000000000000000000000000000000000000000000000000000000000000006001600160a01b0316906370a0823190602401602060405180830381865afa1580156106ad573d6000803e3d6000fd5b505050506040513d601f19601f820116820180604052508101906106d191906110d8565b905090565b60405163b760faf960e01b81523060048201527f00000000000000000000000000000000000000000000000000000000000000006001600160a01b03169063b760faf99034906024016000604051808303818588803b15801561063257600080fd5b6107406107a0565b6001600160a01b03811661076a57604051631e4fbdf760e01b815260006004820152602401610538565b61077381610b04565b50565b61077e6107a0565b600180546001600160a01b0319166001600160a01b0392909216919091179055565b6000546001600160a01b031633146104965760405163118cdaa760e01b8152336004820152602401610538565b336001600160a01b037f000000000000000000000000000000000000000000000000000000000000000016146104965760405162461bcd60e51b815260206004820152601560248201527414d95b99195c881b9bdd08115b9d1c9e541bda5b9d605a1b6044820152606401610538565b604051632943e70960e11b815230600482015260609060009083906001600160a01b037f00000000000000000000000000000000000000000000000000000000000000001690635287ce129060240160a060405180830381865afa1580156108a9573d6000803e3d6000fd5b505050506040513d601f19601f820116820180604052508101906108cd919061112a565b5110156109315760405162461bcd60e51b815260206004820152602c60248201527f5369676e6174757265566572696679696e675061796d61737465723a2064657060448201526b6f73697420746f6f206c6f7760a01b6064820152608401610538565b36600061094160e08801886111c6565b61094f91603490829061107e565b9150915060008036600061096386866104a7565b935093509350935060006109868585308f60000160208101906102189190611061565b7f19457468657265756d205369676e6564204d6573736167653a0a3332000000006000908152601c829052603c81209192505060006109fb8286868080601f016020809104026020016040519081016040528093929190818152602001838380828437600092019190915250610b5492505050565b6001549091506001600160a01b03808316911614610a4257610a1f60018888610b7e565b60405180602001604052806000815250909a509a5050505050505050505061047c565b4265ffffffffffff808216908916111580610a765750610a6381603c611223565b65ffffffffffff168865ffffffffffff16105b15610a8a57610a8781610e10611223565b97505b8065ffffffffffff168765ffffffffffff161115610ac757603c8165ffffffffffff1611610ab9576000610ac4565b610ac4603c82611249565b96505b60408051602081018f905201604051602081830303815290604052610aee60008a8a610b7e565b9b509b5050505050505050505050935093915050565b600080546001600160a01b038381166001600160a01b0319831681178455604051919092169283917f8be0079c531659141344cd1fd0a4f28419497f9722a3daafe3b4186f6b6457e09190a35050565b600080600080610b648686610bb6565b925092509250610b748282610c03565b5090949350505050565b600060d08265ffffffffffff16901b60a08465ffffffffffff16901b85610ba6576000610ba9565b60015b60ff161717949350505050565b60008060008351604103610bf05760208401516040850151606086015160001a610be288828585610cc0565b955095509550505050610bfc565b50508151600091506002905b9250925092565b6000826003811115610c1757610c17611268565b03610c20575050565b6001826003811115610c3457610c34611268565b03610c525760405163f645eedf60e01b815260040160405180910390fd5b6002826003811115610c6657610c66611268565b03610c875760405163fce698f760e01b815260048101829052602401610538565b6003826003811115610c9b57610c9b611268565b03610cbc576040516335e2f38360e21b815260048101829052602401610538565b5050565b600080807f7fffffffffffffffffffffffffffffff5d576e7357a4501ddfe92f46681b20a0841115610cfb5750600091506003905082610d85565b604080516000808252602082018084528a905260ff891692820192909252606081018790526080810186905260019060a0016020604051602081039080840390855afa158015610d4f573d6000803e3d6000fd5b5050604051601f1901519150506001600160a01b038116610d7b57506000925060019150829050610d85565b9250600091508190505b9450945094915050565b63ffffffff8116811461077357600080fd5b600060208284031215610db357600080fd5b8135610dbe81610d8f565b9392505050565b6001600160a01b038116811461077357600080fd5b60008060408385031215610ded57600080fd5b8235610df881610dc5565b946020939093013593505050565b600080600060608486031215610e1b57600080fd5b833567ffffffffffffffff811115610e3257600080fd5b84016101208187031215610e4557600080fd5b95602085013595506040909401359392505050565b604081526000835180604084015260005b81811015610e885760208187018101516060868401015201610e6b565b506000606082850101526060601f19601f8301168401019150508260208301529392505050565b60008083601f840112610ec157600080fd5b50813567ffffffffffffffff811115610ed957600080fd5b602083019150836020828501011115610ef157600080fd5b9250929050565b600080600080600060808688031215610f1057600080fd5b853560038110610f1f57600080fd5b9450602086013567ffffffffffffffff811115610f3b57600080fd5b610f4788828901610eaf565b9699909850959660408101359660609091013595509350505050565b60008060208385031215610f7657600080fd5b823567ffffffffffffffff811115610f8d57600080fd5b610f9985828601610eaf565b90969095509350505050565b600065ffffffffffff808716835280861660208401525060606040830152826060830152828460808401376000608084840101526080601f19601f850116830101905095945050505050565b65ffffffffffff8116811461077357600080fd5b6000806000806080858703121561101b57600080fd5b843561102681610ff1565b9350602085013561103681610ff1565b9250604085013561104681610dc5565b9150606085013561105681610dc5565b939692955090935050565b60006020828403121561107357600080fd5b8135610dbe81610dc5565b6000808585111561108e57600080fd5b8386111561109b57600080fd5b5050820193919092039150565b6001600160d01b031981358181169160068510156110d05780818660060360031b1b83161692505b505092915050565b6000602082840312156110ea57600080fd5b5051919050565b80516dffffffffffffffffffffffffffff8116811461110f57600080fd5b919050565b805161110f81610d8f565b805161110f81610ff1565b600060a0828403121561113c57600080fd5b60405160a0810181811067ffffffffffffffff8211171561116d57634e487b7160e01b600052604160045260246000fd5b604052825181526020830151801515811461118757600080fd5b6020820152611198604084016110f1565b60408201526111a960608401611114565b60608201526111ba6080840161111f565b60808201529392505050565b6000808335601e198436030181126111dd57600080fd5b83018035915067ffffffffffffffff8211156111f857600080fd5b602001915036819003821315610ef157600080fd5b634e487b7160e01b600052601160045260246000fd5b65ffffffffffff8181168382160190808211156112425761124261120d565b5092915050565b65ffffffffffff8281168282160390808211156112425761124261120d565b634e487b7160e01b600052602160045260246000fdfea26469706673582212204afa53dfff0193c51b486464c38403a994c0108c2743669e02938066ea2efc7a64736f6c63430008170033",
  "linkReferences": {},
  "deployedLinkReferences": {}
}