{
  "_format": "hh-sol-artifact-1",
  "contractName": "SignatureVerifyingPaymasterV07",
  "sourceName": "contracts/SignatureVerifyingPaymasterV07.sol",
  "abi": [
    {
      "inputs": [
        {
          "internalType": "contract IEntryPoint",
          "name": "_entryPoint",
          "type": "address"
        }
      ],
      "stateMutability": "nonpayable",
      "type": "constructor"
    },
    {
      "inputs": [
        {
          "internalType": "address",
          "name": "target",
          "type": "address"
        }
      ],
      "name": "AddressEmptyCode",
      "type": "error"
    },
    {
      "inputs": [],
      "name": "ECDSAInvalidSignature",
      "type": "error"
    },
    {
      "inputs": [
        {
          "internalType": "uint256",
          "name": "length",
          "type": "uint256"
        }
      ],
      "name": "ECDSAInvalidSignatureLength",
      "type": "error"
    },
    {
      "inputs": [
        {
          "internalType": "bytes32",
          "name": "s",
          "type": "bytes32"
        }
      ],
      "name": "ECDSAInvalidSignatureS",
      "type": "error"
    },
    {
      "inputs": [
        {
          "internalType": "address",
          "name": "implementation",
          "type": "address"
        }
      ],
      "name": "ERC1967InvalidImplementation",
      "type": "error"
    },
    {
      "inputs": [],
      "name": "ERC1967NonPayable",
      "type": "error"
    },
    {
      "inputs": [],
      "name": "FailedCall",
      "type": "error"
    },
    {
      "inputs": [],
      "name": "InvalidInitialization",
      "type": "error"
    },
    {
      "inputs": [],
      "name": "InvalidPaymasterData",
      "type": "error"
    },
    {
      "inputs": [
        {
          "internalType": "uint256",
          "name": "length",
          "type": "uint256"
        }
      ],
      "name": "InvalidSignatureLength",
      "type": "error"
    },
    {
      "inputs": [],
      "name": "NotInitializing",
      "type": "error"
    },
    {
      "inputs": [
        {
          "internalType": "address",
          "name": "owner",
          "type": "address"
        }
      ],
      "name": "OwnableInvalidOwner",
      "type": "error"
    },
    {
      "inputs": [
        {
          "internalType": "address",
          "name": "account",
          "type": "address"
        }
      ],
      "name": "OwnableUnauthorizedAccount",
      "type": "error"
    },
    {
      "inputs": [
        {
          "internalType": "address",
          "name": "recovered",
          "type": "address"
        },
        {
          "internalType": "address",
          "name": "expected",
          "type": "address"
        }
      ],
      "name": "SignerMismatch",
      "type": "error"
    },
    {
      "inputs": [],
      "name": "UUPSUnauthorizedCallContext",
      "type": "error"
    },
    {
      "inputs": [
        {
          "internalType": "bytes32",
          "name": "slot",
          "type": "bytes32"
        }
      ],
      "name": "UUPSUnsupportedProxiableUUID",
      "type": "error"
    },
    {
      "inputs": [],
      "name": "UnauthorizedUpgrade",
      "type": "error"
    },
    {
      "anonymous": false,
      "inputs": [
        {
          "indexed": true,
          "internalType": "address",
          "name": "newEntryPoint",
          "type": "address"
        }
      ],
      "name": "EntryPointChanged",
      "type": "event"
    },
    {
      "anonymous": false,
      "inputs": [
        {
          "indexed": false,
          "internalType": "uint64",
          "name": "version",
          "type": "uint64"
        }
      ],
      "name": "Initialized",
      "type": "event"
    },
    {
      "anonymous": false,
      "inputs": [
        {
          "indexed": true,
          "internalType": "address",
          "name": "previousOwner",
          "type": "address"
        },
        {
          "indexed": true,
          "internalType": "address",
          "name": "newOwner",
          "type": "address"
        }
      ],
      "name": "OwnershipTransferred",
      "type": "event"
    },
    {
      "anonymous": false,
      "inputs": [
        {
          "indexed": true,
          "internalType": "address",
          "name": "implementation",
          "type": "address"
        }
      ],
      "name": "Upgraded",
      "type": "event"
    },
    {
      "anonymous": false,
      "inputs": [
        {
          "indexed": false,
          "internalType": "bytes32",
          "name": "userOpHash",
          "type": "bytes32"
        },
        {
          "indexed": false,
          "internalType": "uint256",
          "name": "maxCost",
          "type": "uint256"
        },
        {
          "indexed": false,
          "internalType": "uint48",
          "name": "validUntil",
          "type": "uint48"
        },
        {
          "indexed": false,
          "internalType": "uint48",
          "name": "validAfter",
          "type": "uint48"
        }
      ],
      "name": "Validated",
      "type": "event"
    },
    {
      "anonymous": false,
      "inputs": [
        {
          "indexed": true,
          "internalType": "address",
          "name": "oldSigner",
          "type": "address"
        },
        {
          "indexed": true,
          "internalType": "address",
          "name": "newSigner",
          "type": "address"
        }
      ],
      "name": "VerifyingSignerUpdated",
      "type": "event"
    },
    {
      "inputs": [],
      "name": "UPGRADE_INTERFACE_VERSION",
      "outputs": [
        {
          "internalType": "string",
          "name": "",
          "type": "string"
        }
      ],
      "stateMutability": "view",
      "type": "function"
    },
    {
      "inputs": [],
      "name": "VERSION",
      "outputs": [
        {
          "internalType": "uint256",
          "name": "",
          "type": "uint256"
        }
      ],
      "stateMutability": "view",
      "type": "function"
    },
    {
      "inputs": [
        {
          "internalType": "uint32",
          "name": "unstakeDelaySec",
          "type": "uint32"
        }
      ],
      "name": "addStake",
      "outputs": [],
      "stateMutability": "payable",
      "type": "function"
    },
    {
      "inputs": [],
      "name": "deposit",
      "outputs": [],
      "stateMutability": "payable",
      "type": "function"
    },
    {
      "inputs": [],
      "name": "entryPoint",
      "outputs": [
        {
          "internalType": "contract IEntryPoint",
          "name": "",
          "type": "address"
        }
      ],
      "stateMutability": "view",
      "type": "function"
    },
    {
      "inputs": [],
      "name": "getDeposit",
      "outputs": [
        {
          "internalType": "uint256",
          "name": "",
          "type": "uint256"
        }
      ],
      "stateMutability": "view",
      "type": "function"
    },
    {
      "inputs": [
        {
          "internalType": "uint48",
          "name": "validUntil",
          "type": "uint48"
        },
        {
          "internalType": "uint48",
          "name": "validAfter",
          "type": "uint48"
        },
        {
          "internalType": "address",
          "name": "paymasterAddress",
          "type": "address"
        },
        {
          "internalType": "address",
          "name": "senderAddress",
          "type": "address"
        }
      ],
      "name": "getHash",
      "outputs": [
        {
          "internalType": "bytes32",
          "name": "",
          "type": "bytes32"
        }
      ],
      "stateMutability": "view",
      "type": "function"
    },
    {
      "inputs": [
        {
          "internalType": "address",
          "name": "_verifyingSigner",
          "type": "address"
        },
        {
          "internalType": "address",
          "name": "_owner",
          "type": "address"
        }
      ],
      "name": "initialize",
      "outputs": [],
      "stateMutability": "nonpayable",
      "type": "function"
    },
    {
      "inputs": [],
      "name": "owner",
      "outputs": [
        {
          "internalType": "address",
          "name": "",
          "type": "address"
        }
      ],
      "stateMutability": "view",
      "type": "function"
    },
    {
      "inputs": [
        {
          "internalType": "enum IPaymaster.PostOpMode",
          "name": "mode",
          "type": "uint8"
        },
        {
          "internalType": "bytes",
          "name": "context",
          "type": "bytes"
        },
        {
          "internalType": "uint256",
          "name": "actualGasCost",
          "type": "uint256"
        },
        {
          "internalType": "uint256",
          "name": "actualUserOpFeePerGas",
          "type": "uint256"
        }
      ],
      "name": "postOp",
      "outputs": [],
      "stateMutability": "nonpayable",
      "type": "function"
    },
    {
      "inputs": [],
      "name": "proxiableUUID",
      "outputs": [
        {
          "internalType": "bytes32",
          "name": "",
          "type": "bytes32"
        }
      ],
      "stateMutability": "view",
      "type": "function"
    },
    {
      "inputs": [],
      "name": "renounceOwnership",
      "outputs": [],
      "stateMutability": "nonpayable",
      "type": "function"
    },
    {
      "inputs": [
        {
          "internalType": "address",
          "name": "_verifyingSigner",
          "type": "address"
        }
      ],
      "name": "setVerifyingSigner",
      "outputs": [],
      "stateMutability": "nonpayable",
      "type": "function"
    },
    {
      "inputs": [
        {
          "internalType": "address",
          "name": "newOwner",
          "type": "address"
        }
      ],
      "name": "transferOwnership",
      "outputs": [],
      "stateMutability": "nonpayable",
      "type": "function"
    },
    {
      "inputs": [],
      "name": "unlockStake",
      "outputs": [],
      "stateMutability": "nonpayable",
      "type": "function"
    },
    {
      "inputs": [
        {
          "internalType": "address",
          "name": "newImplementation",
          "type": "address"
        },
        {
          "internalType": "bytes",
          "name": "data",
          "type": "bytes"
        }
      ],
      "name": "upgradeToAndCall",
      "outputs": [],
      "stateMutability": "payable",
      "type": "function"
    },
    {
      "inputs": [
        {
          "components": [
            {
              "internalType": "address",
              "name": "sender",
              "type": "address"
            },
            {
              "internalType": "uint256",
              "name": "nonce",
              "type": "uint256"
            },
            {
              "internalType": "bytes",
              "name": "initCode",
              "type": "bytes"
            },
            {
              "internalType": "bytes",
              "name": "callData",
              "type": "bytes"
            },
            {
              "internalType": "bytes32",
              "name": "accountGasLimits",
              "type": "bytes32"
            },
            {
              "internalType": "uint256",
              "name": "preVerificationGas",
              "type": "uint256"
            },
            {
              "internalType": "bytes32",
              "name": "gasFees",
              "type": "bytes32"
            },
            {
              "internalType": "bytes",
              "name": "paymasterAndData",
              "type": "bytes"
            },
            {
              "internalType": "bytes",
              "name": "signature",
              "type": "bytes"
            }
          ],
          "internalType": "struct PackedUserOperation",
          "name": "userOp",
          "type": "tuple"
        },
        {
          "internalType": "bytes32",
          "name": "userOpHash",
          "type": "bytes32"
        },
        {
          "internalType": "uint256",
          "name": "maxCost",
          "type": "uint256"
        }
      ],
      "name": "validatePaymasterUserOp",
      "outputs": [
        {
          "internalType": "bytes",
          "name": "context",
          "type": "bytes"
        },
        {
          "internalType": "uint256",
          "name": "validationData",
          "type": "uint256"
        }
      ],
      "stateMutability": "nonpayable",
      "type": "function"
    },
    {
      "inputs": [],
      "name": "verifyingSigner",
      "outputs": [
        {
          "internalType": "address",
          "name": "",
          "type": "address"
        }
      ],
      "stateMutability": "view",
      "type": "function"
    },
    {
      "inputs": [
        {
          "internalType": "address payable",
          "name": "withdrawAddress",
          "type": "address"
        }
      ],
      "name": "withdrawStake",
      "outputs": [],
      "stateMutability": "nonpayable",
      "type": "function"
    },
    {
      "inputs": [
        {
          "internalType": "address payable",
          "name": "withdrawAddress",
          "type": "address"
        },
        {
          "internalType": "uint256",
          "name": "amount",
          "type": "uint256"
        }
      ],
      "name": "withdrawTo",
      "outputs": [],
      "stateMutability": "nonpayable",
      "type": "function"
    },
    {
      "stateMutability": "payable",
      "type": "receive"
    }
  ],
  "bytecode": "0x60c0604052306080523480156200001557600080fd5b5060405162001b4b38038062001b4b83398101604081905262000038916200025b565b8033806200006157604051631e4fbdf760e01b8152600060048201526024015b60405180910390fd5b6200006c8162000095565b506200007881620000e5565b6001600160a01b031660a0526200008e620001a8565b50620002b1565b600080546001600160a01b038381166001600160a01b0319831681178455604051919092169283917f8be0079c531659141344cd1fd0a4f28419497f9722a3daafe3b4186f6b6457e09190a35050565b6040516301ffc9a760e01b815263122a0e9b60e31b60048201526001600160a01b038216906301ffc9a790602401602060405180830381865afa15801562000131573d6000803e3d6000fd5b505050506040513d601f19601f820116820180604052508101906200015791906200028d565b620001a55760405162461bcd60e51b815260206004820152601e60248201527f49456e747279506f696e7420696e74657266616365206d69736d617463680000604482015260640162000058565b50565b7ff0c57e16840df040f15088dc2f81fe391c3923bec73e23a9662efc9c229c6a00805468010000000000000000900460ff1615620001f95760405163f92ee8a960e01b815260040160405180910390fd5b80546001600160401b0390811614620001a55780546001600160401b0319166001600160401b0390811782556040519081527fc7f505b2f371ae2175ee4913f4499e1f2633a7b5936321eed1cdaeb6115181d29060200160405180910390a150565b6000602082840312156200026e57600080fd5b81516001600160a01b03811681146200028657600080fd5b9392505050565b600060208284031215620002a057600080fd5b815180151581146200028657600080fd5b60805160a051611835620003166000396000818161034201528181610420015281816104aa0152818161054101528181610744015281816107de0152818161083a0152610b4e0152600081816109df01528181610a080152610de301526118356000f3fe6080604052600436106101235760003560e01c80638da5cb5b116100a0578063c399ec8811610064578063c399ec8814610399578063d0e30db0146103ae578063f2fde38b146103b6578063f5cba98c146103d6578063ffa1ad74146103f657600080fd5b80638da5cb5b146102d4578063ad3cb1cc146102f2578063b0d691fe14610330578063bb9fe6bf14610364578063c23a5cea1461037957600080fd5b806352b7512c116100e757806352b7512c146101da57806352d1902d14610208578063715018a61461022b5780637c627b21146102405780638224225c1461026057600080fd5b80630396cb6014610137578063205c28781461014a57806323d9ac9b1461016a578063485cc955146101a75780634f1ef286146101c757600080fd5b366101325761013061040b565b005b600080fd5b610130610145366004611316565b610488565b34801561015657600080fd5b50610130610165366004611351565b610513565b34801561017657600080fd5b5060015461018a906001600160a01b031681565b6040516001600160a01b0390911681526020015b60405180910390f35b3480156101b357600080fd5b506101306101c236600461137d565b610585565b6101306101d53660046113cc565b6106b9565b3480156101e657600080fd5b506101fa6101f5366004611490565b6106d8565b60405161019e929190611534565b34801561021457600080fd5b5061021d6106fc565b60405190815260200161019e565b34801561023757600080fd5b50610130610719565b34801561024c57600080fd5b5061013061025b366004611556565b61072d565b34801561026c57600080fd5b5061021d61027b366004611609565b6040805165ffffffffffff95861660208083019190915294909516858201524660608601526001600160a01b039283166080860152911660a0808501919091528151808503909101815260c09093019052815191012090565b3480156102e057600080fd5b506000546001600160a01b031661018a565b3480156102fe57600080fd5b50610323604051806040016040528060058152602001640352e302e360dc1b81525081565b60405161019e9190611661565b34801561033c57600080fd5b5061018a7f000000000000000000000000000000000000000000000000000000000000000081565b34801561037057600080fd5b5061013061073a565b34801561038557600080fd5b50610130610394366004611674565b6107b7565b3480156103a557600080fd5b5061021d610822565b61013061040b565b3480156103c257600080fd5b506101306103d1366004611674565b6108b2565b3480156103e257600080fd5b506101306103f1366004611674565b6108f5565b34801561040257600080fd5b5061021d600381565b60405163b760faf960e01b81523060048201527f00000000000000000000000000000000000000000000000000000000000000006001600160a01b03169063b760faf99034906024016000604051808303818588803b15801561046d57600080fd5b505af1158015610481573d6000803e3d6000fd5b5050505050565b61049061094f565b604051621cb65b60e51b815263ffffffff821660048201527f00000000000000000000000000000000000000000000000000000000000000006001600160a01b031690630396cb609034906024016000604051808303818588803b1580156104f757600080fd5b505af115801561050b573d6000803e3d6000fd5b505050505050565b61051b61094f565b60405163040b850f60e31b81526001600160a01b038381166004830152602482018390527f0000000000000000000000000000000000000000000000000000000000000000169063205c287890604401600060405180830381600087803b1580156104f757600080fd5b7ff0c57e16840df040f15088dc2f81fe391c3923bec73e23a9662efc9c229c6a008054600160401b810460ff16159067ffffffffffffffff166000811580156105cb5750825b905060008267ffffffffffffffff1660011480156105e85750303b155b9050811580156105f6575080155b156106145760405163f92ee8a960e01b815260040160405180910390fd5b845467ffffffffffffffff19166001178555831561063e57845460ff60401b1916600160401b1785555b61064661097c565b600180546001600160a01b0319166001600160a01b03891617905561066a86610984565b83156106b057845460ff60401b19168555604051600181527fc7f505b2f371ae2175ee4913f4499e1f2633a7b5936321eed1cdaeb6115181d29060200160405180910390a15b50505050505050565b6106c16109d4565b6106ca82610a79565b6106d48282610a81565b5050565b606060006106e4610b43565b6106ef858585610bb3565b915091505b935093915050565b6000610706610dd8565b506000805160206117e083398151915290565b61072161094f565b61072b6000610984565b565b610735610b43565b610481565b61074261094f565b7f00000000000000000000000000000000000000000000000000000000000000006001600160a01b031663bb9fe6bf6040518163ffffffff1660e01b8152600401600060405180830381600087803b15801561079d57600080fd5b505af11580156107b1573d6000803e3d6000fd5b50505050565b6107bf61094f565b60405163611d2e7560e11b81526001600160a01b0382811660048301527f0000000000000000000000000000000000000000000000000000000000000000169063c23a5cea90602401600060405180830381600087803b15801561046d57600080fd5b6040516370a0823160e01b81523060048201526000907f00000000000000000000000000000000000000000000000000000000000000006001600160a01b0316906370a0823190602401602060405180830381865afa158015610889573d6000803e3d6000fd5b505050506040513d601f19601f820116820180604052508101906108ad9190611691565b905090565b6108ba61094f565b6001600160a01b0381166108e957604051631e4fbdf760e01b8152600060048201526024015b60405180910390fd5b6108f281610984565b50565b6108fd61094f565b600180546001600160a01b038381166001600160a01b0319831681179093556040519116919082907fdeee0b46266dc0734b009b2ca66e2ac28d5fd72d38506a3fe462865f00c5df4e90600090a35050565b6000546001600160a01b0316331461072b5760405163118cdaa760e01b81523360048201526024016108e0565b61072b610e21565b600080546001600160a01b038381166001600160a01b0319831681178455604051919092169283917f8be0079c531659141344cd1fd0a4f28419497f9722a3daafe3b4186f6b6457e09190a35050565b306001600160a01b037f0000000000000000000000000000000000000000000000000000000000000000161480610a5b57507f00000000000000000000000000000000000000000000000000000000000000006001600160a01b0316610a4f6000805160206117e0833981519152546001600160a01b031690565b6001600160a01b031614155b1561072b5760405163703e46dd60e11b815260040160405180910390fd5b6108f261094f565b816001600160a01b03166352d1902d6040518163ffffffff1660e01b8152600401602060405180830381865afa925050508015610adb575060408051601f3d908101601f19168201909252610ad891810190611691565b60015b610b0357604051634c9c8ce360e01b81526001600160a01b03831660048201526024016108e0565b6000805160206117e08339815191528114610b3457604051632a87526960e21b8152600481018290526024016108e0565b610b3e8383610e6a565b505050565b336001600160a01b037f0000000000000000000000000000000000000000000000000000000000000000161461072b5760405162461bcd60e51b815260206004820152601560248201527414d95b99195c881b9bdd08115b9d1c9e541bda5b9d605a1b60448201526064016108e0565b606060003681610bc660e08801886116aa565b610bd49160349082906116f8565b91509150600080366000610be88686610ec0565b93509350935093506000610c0b8585308f600001602081019061027b9190611674565b7f19457468657265756d205369676e6564204d6573736167653a0a3332000000006000908152601c829052603c8120919250506000610c808286868080601f016020809104026020016040519081016040528093929190818152602001838380828437600092019190915250610f5e92505050565b6001549091506001600160a01b03808316911614610cc757610ca460018888610f88565b60405180602001604052806000815250909a509a505050505050505050506106f4565b4265ffffffffffff808216908916111580610cfb5750610ce881603c611738565b65ffffffffffff168865ffffffffffff16105b15610d0f57610d0c81610e10611738565b97505b8065ffffffffffff168765ffffffffffff161115610d4c57603c8165ffffffffffff1611610d3e576000610d49565b610d49603c8261175e565b96505b604080518f8152602081018f905265ffffffffffff8a8116828401528916606082015290517fa832915335bfbcdcce15f4da2c2a11df06a8f97105e9be5968c9f6f42bd103669181900360800190a160408051602081018f905201604051602081830303815290604052610dc260008a8a610f88565b9b509b5050505050505050505050935093915050565b306001600160a01b037f0000000000000000000000000000000000000000000000000000000000000000161461072b5760405163703e46dd60e11b815260040160405180910390fd5b7ff0c57e16840df040f15088dc2f81fe391c3923bec73e23a9662efc9c229c6a0054600160401b900460ff1661072b57604051631afcd79f60e31b815260040160405180910390fd5b610e7382610fc2565b6040516001600160a01b038316907fbc7cd75a20ee27fd9adebab32041f755214dbc6bffa90cc0225b39da2e5c2d3b90600090a2805115610eb857610b3e8282611027565b6106d461109d565b6000803681604d851015610ee75760405163097637e960e21b815260040160405180910390fd5b610ef56006600087896116f8565b610efe9161177d565b60d01c9350610f11600c600687896116f8565b610f1a9161177d565b60d01c9250610f2c85600c81896116f8565b909250905060418114610f555760405163058676ad60e31b8152600481018290526024016108e0565b92959194509250565b600080600080610f6e86866110bc565b925092509250610f7e8282611109565b5090949350505050565b600060d08265ffffffffffff16901b60a08465ffffffffffff16901b85610fb0576000610fb3565b60015b60ff16171790505b9392505050565b806001600160a01b03163b600003610ff857604051634c9c8ce360e01b81526001600160a01b03821660048201526024016108e0565b6000805160206117e083398151915280546001600160a01b0319166001600160a01b0392909216919091179055565b6060600080846001600160a01b03168460405161104491906117ad565b600060405180830381855af49150503d806000811461107f576040519150601f19603f3d011682016040523d82523d6000602084013e611084565b606091505b50915091506110948583836111c2565b95945050505050565b341561072b5760405163b398979f60e01b815260040160405180910390fd5b600080600083516041036110f65760208401516040850151606086015160001a6110e88882858561121e565b955095509550505050611102565b50508151600091506002905b9250925092565b600082600381111561111d5761111d6117c9565b03611126575050565b600182600381111561113a5761113a6117c9565b036111585760405163f645eedf60e01b815260040160405180910390fd5b600282600381111561116c5761116c6117c9565b0361118d5760405163fce698f760e01b8152600481018290526024016108e0565b60038260038111156111a1576111a16117c9565b036106d4576040516335e2f38360e21b8152600481018290526024016108e0565b6060826111d7576111d2826112ed565b610fbb565b81511580156111ee57506001600160a01b0384163b155b1561121757604051639996b31560e01b81526001600160a01b03851660048201526024016108e0565b5080610fbb565b600080807f7fffffffffffffffffffffffffffffff5d576e7357a4501ddfe92f46681b20a084111561125957506000915060039050826112e3565b604080516000808252602082018084528a905260ff891692820192909252606081018790526080810186905260019060a0016020604051602081039080840390855afa1580156112ad573d6000803e3d6000fd5b5050604051601f1901519150506001600160a01b0381166112d9575060009250600191508290506112e3565b9250600091508190505b9450945094915050565b8051156112fd5780518082602001fd5b60405163d6bda27560e01b815260040160405180910390fd5b60006020828403121561132857600080fd5b813563ffffffff81168114610fbb57600080fd5b6001600160a01b03811681146108f257600080fd5b6000806040838503121561136457600080fd5b823561136f8161133c565b946020939093013593505050565b6000806040838503121561139057600080fd5b823561139b8161133c565b915060208301356113ab8161133c565b809150509250929050565b634e487b7160e01b600052604160045260246000fd5b600080604083850312156113df57600080fd5b82356113ea8161133c565b9150602083013567ffffffffffffffff8082111561140757600080fd5b818501915085601f83011261141b57600080fd5b81358181111561142d5761142d6113b6565b604051601f8201601f19908116603f01168101908382118183101715611455576114556113b6565b8160405282815288602084870101111561146e57600080fd5b8260208601602083013760006020848301015280955050505050509250929050565b6000806000606084860312156114a557600080fd5b833567ffffffffffffffff8111156114bc57600080fd5b840161012081870312156114cf57600080fd5b95602085013595506040909401359392505050565b60005b838110156114ff5781810151838201526020016114e7565b50506000910152565b600081518084526115208160208601602086016114e4565b601f01601f19169290920160200192915050565b6040815260006115476040830185611508565b90508260208301529392505050565b60008060008060006080868803121561156e57600080fd5b85356003811061157d57600080fd5b9450602086013567ffffffffffffffff8082111561159a57600080fd5b818801915088601f8301126115ae57600080fd5b8135818111156115bd57600080fd5b8960208285010111156115cf57600080fd5b9699602092909201985095966040810135965060600135945092505050565b803565ffffffffffff8116811461160457600080fd5b919050565b6000806000806080858703121561161f57600080fd5b611628856115ee565b9350611636602086016115ee565b925060408501356116468161133c565b915060608501356116568161133c565b939692955090935050565b602081526000610fbb6020830184611508565b60006020828403121561168657600080fd5b8135610fbb8161133c565b6000602082840312156116a357600080fd5b5051919050565b6000808335601e198436030181126116c157600080fd5b83018035915067ffffffffffffffff8211156116dc57600080fd5b6020019150368190038213156116f157600080fd5b9250929050565b6000808585111561170857600080fd5b8386111561171557600080fd5b5050820193919092039150565b634e487b7160e01b600052601160045260246000fd5b65ffffffffffff81811683821601908082111561175757611757611722565b5092915050565b65ffffffffffff82811682821603908082111561175757611757611722565b6001600160d01b031981358181169160068510156117a55780818660060360031b1b83161692505b505092915050565b600082516117bf8184602087016114e4565b9190910192915050565b634e487b7160e01b600052602160045260246000fdfe360894a13ba1a3210667c828492db98dca3e2076cc3735a920a3ca505d382bbca26469706673582212201bd1e5d3ba4dcc393b5998772b8215f51ea8d3a5d2b3aa8113451411de3dffa464736f6c63430008170033",
  "linkReferences": {},
  "deployedLinkReferences": {}
}