{
  "_format": "hh-sol-artifact-1",
  "contractName": "SignatureVerifyingPaymasterV07",
  "sourceName": "contracts/SignatureVerifyingPaymasterV07.sol",
  "abi": [
    {
      "inputs": [],
      "stateMutability": "nonpayable",
      "type": "constructor"
    },
    {
      "inputs": [
        {
          "internalType": "address",
          "name": "target",
          "type": "address"
        }
      ],
      "name": "AddressEmptyCode",
      "type": "error"
    },
    {
      "inputs": [],
      "name": "ECDSAInvalidSignature",
      "type": "error"
    },
    {
      "inputs": [
        {
          "internalType": "uint256",
          "name": "length",
          "type": "uint256"
        }
      ],
      "name": "ECDSAInvalidSignatureLength",
      "type": "error"
    },
    {
      "inputs": [
        {
          "internalType": "bytes32",
          "name": "s",
          "type": "bytes32"
        }
      ],
      "name": "ECDSAInvalidSignatureS",
      "type": "error"
    },
    {
      "inputs": [
        {
          "internalType": "address",
          "name": "implementation",
          "type": "address"
        }
      ],
      "name": "ERC1967InvalidImplementation",
      "type": "error"
    },
    {
      "inputs": [],
      "name": "ERC1967NonPayable",
      "type": "error"
    },
    {
      "inputs": [],
      "name": "FailedCall",
      "type": "error"
    },
    {
      "inputs": [],
      "name": "InvalidInitialization",
      "type": "error"
    },
    {
      "inputs": [],
      "name": "InvalidPaymasterData",
      "type": "error"
    },
    {
      "inputs": [
        {
          "internalType": "uint256",
          "name": "length",
          "type": "uint256"
        }
      ],
      "name": "InvalidSignatureLength",
      "type": "error"
    },
    {
      "inputs": [],
      "name": "NotInitializing",
      "type": "error"
    },
    {
      "inputs": [],
      "name": "OnlyEntryPoint",
      "type": "error"
    },
    {
      "inputs": [
        {
          "internalType": "address",
          "name": "owner",
          "type": "address"
        }
      ],
      "name": "OwnableInvalidOwner",
      "type": "error"
    },
    {
      "inputs": [
        {
          "internalType": "address",
          "name": "account",
          "type": "address"
        }
      ],
      "name": "OwnableUnauthorizedAccount",
      "type": "error"
    },
    {
      "inputs": [
        {
          "internalType": "address",
          "name": "recovered",
          "type": "address"
        },
        {
          "internalType": "address",
          "name": "expected",
          "type": "address"
        }
      ],
      "name": "SignerMismatch",
      "type": "error"
    },
    {
      "inputs": [],
      "name": "UUPSUnauthorizedCallContext",
      "type": "error"
    },
    {
      "inputs": [
        {
          "internalType": "bytes32",
          "name": "slot",
          "type": "bytes32"
        }
      ],
      "name": "UUPSUnsupportedProxiableUUID",
      "type": "error"
    },
    {
      "inputs": [],
      "name": "UnauthorizedUpgrade",
      "type": "error"
    },
    {
      "anonymous": false,
      "inputs": [
        {
          "indexed": true,
          "internalType": "address",
          "name": "newEntryPoint",
          "type": "address"
        }
      ],
      "name": "EntryPointChanged",
      "type": "event"
    },
    {
      "anonymous": false,
      "inputs": [
        {
          "indexed": false,
          "internalType": "uint64",
          "name": "version",
          "type": "uint64"
        }
      ],
      "name": "Initialized",
      "type": "event"
    },
    {
      "anonymous": false,
      "inputs": [
        {
          "indexed": true,
          "internalType": "address",
          "name": "previousOwner",
          "type": "address"
        },
        {
          "indexed": true,
          "internalType": "address",
          "name": "newOwner",
          "type": "address"
        }
      ],
      "name": "OwnershipTransferred",
      "type": "event"
    },
    {
      "anonymous": false,
      "inputs": [
        {
          "indexed": false,
          "internalType": "bytes",
          "name": "context",
          "type": "bytes"
        }
      ],
      "name": "PostOpReverted",
      "type": "event"
    },
    {
      "anonymous": false,
      "inputs": [
        {
          "indexed": false,
          "internalType": "enum IPaymaster.PostOpMode",
          "name": "mode",
          "type": "uint8"
        },
        {
          "indexed": false,
          "internalType": "bytes",
          "name": "context",
          "type": "bytes"
        },
        {
          "indexed": false,
          "internalType": "uint256",
          "name": "actualGasCost",
          "type": "uint256"
        },
        {
          "indexed": false,
          "internalType": "uint256",
          "name": "actualUserOpFeePerGas",
          "type": "uint256"
        }
      ],
      "name": "PostOpSucceeded",
      "type": "event"
    },
    {
      "anonymous": false,
      "inputs": [
        {
          "indexed": true,
          "internalType": "address",
          "name": "implementation",
          "type": "address"
        }
      ],
      "name": "Upgraded",
      "type": "event"
    },
    {
      "anonymous": false,
      "inputs": [
        {
          "indexed": false,
          "internalType": "bytes32",
          "name": "userOpHash",
          "type": "bytes32"
        },
        {
          "indexed": false,
          "internalType": "uint256",
          "name": "maxCost",
          "type": "uint256"
        },
        {
          "indexed": false,
          "internalType": "uint48",
          "name": "validUntil",
          "type": "uint48"
        },
        {
          "indexed": false,
          "internalType": "uint48",
          "name": "validAfter",
          "type": "uint48"
        }
      ],
      "name": "Validated",
      "type": "event"
    },
    {
      "inputs": [],
      "name": "UPGRADE_INTERFACE_VERSION",
      "outputs": [
        {
          "internalType": "string",
          "name": "",
          "type": "string"
        }
      ],
      "stateMutability": "view",
      "type": "function"
    },
    {
      "inputs": [],
      "name": "VERSION",
      "outputs": [
        {
          "internalType": "uint256",
          "name": "",
          "type": "uint256"
        }
      ],
      "stateMutability": "view",
      "type": "function"
    },
    {
      "inputs": [],
      "name": "deposit",
      "outputs": [],
      "stateMutability": "payable",
      "type": "function"
    },
    {
      "inputs": [],
      "name": "entryPoint",
      "outputs": [
        {
          "internalType": "contract IEntryPoint",
          "name": "",
          "type": "address"
        }
      ],
      "stateMutability": "view",
      "type": "function"
    },
    {
      "inputs": [
        {
          "internalType": "uint48",
          "name": "validUntil",
          "type": "uint48"
        },
        {
          "internalType": "uint48",
          "name": "validAfter",
          "type": "uint48"
        },
        {
          "internalType": "address",
          "name": "paymasterAddress",
          "type": "address"
        },
        {
          "internalType": "address",
          "name": "senderAddress",
          "type": "address"
        }
      ],
      "name": "getHash",
      "outputs": [
        {
          "internalType": "bytes32",
          "name": "",
          "type": "bytes32"
        }
      ],
      "stateMutability": "view",
      "type": "function"
    },
    {
      "inputs": [
        {
          "internalType": "contract IEntryPoint",
          "name": "_entryPoint",
          "type": "address"
        },
        {
          "internalType": "address",
          "name": "_verifyingSigner",
          "type": "address"
        },
        {
          "internalType": "address",
          "name": "_owner",
          "type": "address"
        }
      ],
      "name": "initialize",
      "outputs": [],
      "stateMutability": "nonpayable",
      "type": "function"
    },
    {
      "inputs": [],
      "name": "owner",
      "outputs": [
        {
          "internalType": "address",
          "name": "",
          "type": "address"
        }
      ],
      "stateMutability": "view",
      "type": "function"
    },
    {
      "inputs": [
        {
          "internalType": "bytes",
          "name": "paymasterData",
          "type": "bytes"
        }
      ],
      "name": "parsePaymasterData",
      "outputs": [
        {
          "internalType": "uint48",
          "name": "validUntil",
          "type": "uint48"
        },
        {
          "internalType": "uint48",
          "name": "validAfter",
          "type": "uint48"
        },
        {
          "internalType": "bytes",
          "name": "signature",
          "type": "bytes"
        }
      ],
      "stateMutability": "pure",
      "type": "function"
    },
    {
      "inputs": [
        {
          "internalType": "enum IPaymaster.PostOpMode",
          "name": "mode",
          "type": "uint8"
        },
        {
          "internalType": "bytes",
          "name": "context",
          "type": "bytes"
        },
        {
          "internalType": "uint256",
          "name": "actualGasCost",
          "type": "uint256"
        },
        {
          "internalType": "uint256",
          "name": "actualUserOpFeePerGas",
          "type": "uint256"
        }
      ],
      "name": "postOp",
      "outputs": [],
      "stateMutability": "nonpayable",
      "type": "function"
    },
    {
      "inputs": [],
      "name": "proxiableUUID",
      "outputs": [
        {
          "internalType": "bytes32",
          "name": "",
          "type": "bytes32"
        }
      ],
      "stateMutability": "view",
      "type": "function"
    },
    {
      "inputs": [],
      "name": "renounceOwnership",
      "outputs": [],
      "stateMutability": "nonpayable",
      "type": "function"
    },
    {
      "inputs": [
        {
          "internalType": "contract IEntryPoint",
          "name": "_entryPoint",
          "type": "address"
        }
      ],
      "name": "setEntryPoint",
      "outputs": [],
      "stateMutability": "nonpayable",
      "type": "function"
    },
    {
      "inputs": [
        {
          "internalType": "address",
          "name": "_verifyingSigner",
          "type": "address"
        }
      ],
      "name": "setVerifyingSigner",
      "outputs": [],
      "stateMutability": "nonpayable",
      "type": "function"
    },
    {
      "inputs": [
        {
          "internalType": "address",
          "name": "newOwner",
          "type": "address"
        }
      ],
      "name": "transferOwnership",
      "outputs": [],
      "stateMutability": "nonpayable",
      "type": "function"
    },
    {
      "inputs": [
        {
          "internalType": "address",
          "name": "newImplementation",
          "type": "address"
        },
        {
          "internalType": "bytes",
          "name": "data",
          "type": "bytes"
        }
      ],
      "name": "upgradeToAndCall",
      "outputs": [],
      "stateMutability": "payable",
      "type": "function"
    },
    {
      "inputs": [
        {
          "components": [
            {
              "internalType": "address",
              "name": "sender",
              "type": "address"
            },
            {
              "internalType": "uint256",
              "name": "nonce",
              "type": "uint256"
            },
            {
              "internalType": "bytes",
              "name": "initCode",
              "type": "bytes"
            },
            {
              "internalType": "bytes",
              "name": "callData",
              "type": "bytes"
            },
            {
              "internalType": "bytes32",
              "name": "accountGasLimits",
              "type": "bytes32"
            },
            {
              "internalType": "uint256",
              "name": "preVerificationGas",
              "type": "uint256"
            },
            {
              "internalType": "bytes32",
              "name": "gasFees",
              "type": "bytes32"
            },
            {
              "internalType": "bytes",
              "name": "paymasterAndData",
              "type": "bytes"
            },
            {
              "internalType": "bytes",
              "name": "signature",
              "type": "bytes"
            }
          ],
          "internalType": "struct PackedUserOperation",
          "name": "userOp",
          "type": "tuple"
        },
        {
          "internalType": "bytes32",
          "name": "userOpHash",
          "type": "bytes32"
        },
        {
          "internalType": "uint256",
          "name": "maxCost",
          "type": "uint256"
        }
      ],
      "name": "validatePaymasterUserOp",
      "outputs": [
        {
          "internalType": "bytes",
          "name": "context",
          "type": "bytes"
        },
        {
          "internalType": "uint256",
          "name": "validationData",
          "type": "uint256"
        }
      ],
      "stateMutability": "nonpayable",
      "type": "function"
    },
    {
      "inputs": [],
      "name": "verifyingSigner",
      "outputs": [
        {
          "internalType": "address",
          "name": "",
          "type": "address"
        }
      ],
      "stateMutability": "view",
      "type": "function"
    },
    {
      "inputs": [
        {
          "internalType": "address payable",
          "name": "withdrawAddress",
          "type": "address"
        },
        {
          "internalType": "uint256",
          "name": "amount",
          "type": "uint256"
        }
      ],
      "name": "withdraw",
      "outputs": [],
      "stateMutability": "nonpayable",
      "type": "function"
    }
  ],
  "bytecode": "0x60a06040523060805234801561001457600080fd5b5061001d610022565b6100d4565b7ff0c57e16840df040f15088dc2f81fe391c3923bec73e23a9662efc9c229c6a00805468010000000000000000900460ff16156100725760405163f92ee8a960e01b815260040160405180910390fd5b80546001600160401b03908116146100d15780546001600160401b0319166001600160401b0390811782556040519081527fc7f505b2f371ae2175ee4913f4499e1f2633a7b5936321eed1cdaeb6115181d29060200160405180910390a15b50565b60805161198d6100fd60003960008181610b9a01528181610bc30152610d6d015261198d6000f3fe6080604052600436106101095760003560e01c80638da5cb5b11610095578063d0e30db011610064578063d0e30db014610365578063f2fde38b1461036d578063f3fef3a31461038d578063f5cba98c146103ad578063ffa1ad74146103cd57600080fd5b80638da5cb5b146102aa578063ad3cb1cc146102e7578063b0d691fe14610325578063c0c53b8b1461034557600080fd5b8063584465f2116100dc578063584465f2146101b1578063715018a6146101d15780637c627b21146101e657806381e4d81d146102065780638224225c1461023657600080fd5b806323d9ac9b1461010e5780634f1ef2861461014b57806352b7512c1461016057806352d1902d1461018e575b600080fd5b34801561011a57600080fd5b5060015461012e906001600160a01b031681565b6040516001600160a01b0390911681526020015b60405180910390f35b61015e6101593660046112e7565b6103e2565b005b34801561016c57600080fd5b5061018061017b36600461138f565b610401565b604051610142929190611433565b34801561019a57600080fd5b506101a3610729565b604051908152602001610142565b3480156101bd57600080fd5b5061015e6101cc366004611455565b610746565b3480156101dd57600080fd5b5061015e610796565b3480156101f257600080fd5b5061015e6102013660046114bb565b6107aa565b34801561021257600080fd5b50610226610221366004611526565b610873565b6040516101429493929190611591565b34801561024257600080fd5b506101a36102513660046115db565b6040805165ffffffffffff95861660208083019190915294909516858201524660608601526001600160a01b039283166080860152911660a0808501919091528151808503909101815260c09093019052815191012090565b3480156102b657600080fd5b507f9016d09d72d40fdae2fd8ceac6b6234c7706214fd39c1cd1e609a0528c199300546001600160a01b031661012e565b3480156102f357600080fd5b50610318604051806040016040528060058152602001640352e302e360dc1b81525081565b6040516101429190611637565b34801561033157600080fd5b5060005461012e906001600160a01b031681565b34801561035157600080fd5b5061015e61036036600461164a565b610911565b61015e610a5b565b34801561037957600080fd5b5061015e610388366004611455565b610ab5565b34801561039957600080fd5b5061015e6103a8366004611695565b610af3565b3480156103b957600080fd5b5061015e6103c8366004611455565b610b65565b3480156103d957600080fd5b506101a3600281565b6103ea610b8f565b6103f382610c34565b6103fd8282610c3c565b5050565b60008054606091906001600160a01b031633146104315760405163bd07c55160e01b815260040160405180910390fd5b600054604051632943e70960e11b815230600482015284916001600160a01b031690635287ce129060240160a060405180830381865afa158015610479573d6000803e3d6000fd5b505050506040513d601f19601f8201168201806040525081019061049d91906116e5565b5110156105065760405162461bcd60e51b815260206004820152602c60248201527f5369676e6174757265566572696679696e675061796d61737465723a2064657060448201526b6f73697420746f6f206c6f7760a01b60648201526084015b60405180910390fd5b36600061051660e0880188611788565b6105249160149082906117cf565b915091506000803660006105388686610873565b9350935093509350600061055b8585308f60000160208101906102519190611455565b7f19457468657265756d205369676e6564204d6573736167653a0a3332000000006000908152601c829052603c81209192505060006105d08286868080601f016020809104026020016040519081016040528093929190818152602001838380828437600092019190915250610cfe92505050565b6001549091506001600160a01b03808316911614610617576105f460018888610d28565b60405180602001604052806000815250909a509a50505050505050505050610721565b4265ffffffffffff80821690891611158061064b575061063881603c61180f565b65ffffffffffff168865ffffffffffff16105b1561065f5761065c81610e1061180f565b97505b8065ffffffffffff168765ffffffffffff16111561069c57603c8165ffffffffffff161161068e576000610699565b610699603c82611835565b96505b604080518f8152602081018f905265ffffffffffff8a8116828401528916606082015290517fa832915335bfbcdcce15f4da2c2a11df06a8f97105e9be5968c9f6f42bd103669181900360800190a160408051602081018f90520160405160208183030381529060405261071260008a8a610d28565b9b509b50505050505050505050505b935093915050565b6000610733610d62565b5060008051602061193883398151915290565b61074e610dab565b600080546001600160a01b0319166001600160a01b038316908117825560405190917f94fe20369eda1036391e68ebc6af4965f710ae7bc0cb1c315895c028149582d291a250565b61079e610dab565b6107a86000610e06565b565b6000546001600160a01b031633146107d55760405163bd07c55160e01b815260040160405180910390fd5b60018560028111156107e9576107e9611854565b0361082c577fad7954bcae0d69c56f2323097b645bc6b6033c9f3777375271d77a608fc206ae848460405161081f92919061186a565b60405180910390a161086c565b7f2dfae06bee7d97392b041ca19b45614625cdbe5e95d601832bf6d7ac6d86386e8585858585604051610863959493929190611886565b60405180910390a15b5050505050565b6000803681604d85101561089a5760405163097637e960e21b815260040160405180910390fd5b6108a86006600087896117cf565b6108b1916118d2565b60d01c93506108c4600c600687896117cf565b6108cd916118d2565b60d01c92506108df85600c81896117cf565b9092509050604181146109085760405163058676ad60e31b8152600481018290526024016104fd565b92959194509250565b7ff0c57e16840df040f15088dc2f81fe391c3923bec73e23a9662efc9c229c6a008054600160401b810460ff16159067ffffffffffffffff166000811580156109575750825b905060008267ffffffffffffffff1660011480156109745750303b155b905081158015610982575080155b156109a05760405163f92ee8a960e01b815260040160405180910390fd5b845467ffffffffffffffff1916600117855583156109ca57845460ff60401b1916600160401b1785555b6109d2610e77565b6109db86610e7f565b600080546001600160a01b03808b166001600160a01b03199283161790925560018054928a16929091169190911790558315610a5157845460ff60401b19168555604051600181527fc7f505b2f371ae2175ee4913f4499e1f2633a7b5936321eed1cdaeb6115181d29060200160405180910390a15b5050505050505050565b60005460405163b760faf960e01b81523060048201526001600160a01b039091169063b760faf99034906024016000604051808303818588803b158015610aa157600080fd5b505af115801561086c573d6000803e3d6000fd5b610abd610dab565b6001600160a01b038116610ae757604051631e4fbdf760e01b8152600060048201526024016104fd565b610af081610e06565b50565b610afb610dab565b60005460405163040b850f60e31b81526001600160a01b038481166004830152602482018490529091169063205c287890604401600060405180830381600087803b158015610b4957600080fd5b505af1158015610b5d573d6000803e3d6000fd5b505050505050565b610b6d610dab565b600180546001600160a01b0319166001600160a01b0392909216919091179055565b306001600160a01b037f0000000000000000000000000000000000000000000000000000000000000000161480610c1657507f00000000000000000000000000000000000000000000000000000000000000006001600160a01b0316610c0a600080516020611938833981519152546001600160a01b031690565b6001600160a01b031614155b156107a85760405163703e46dd60e11b815260040160405180910390fd5b610af0610dab565b816001600160a01b03166352d1902d6040518163ffffffff1660e01b8152600401602060405180830381865afa925050508015610c96575060408051601f3d908101601f19168201909252610c9391810190611902565b60015b610cbe57604051634c9c8ce360e01b81526001600160a01b03831660048201526024016104fd565b6000805160206119388339815191528114610cef57604051632a87526960e21b8152600481018290526024016104fd565b610cf98383610e90565b505050565b600080600080610d0e8686610ee6565b925092509250610d1e8282610f33565b5090949350505050565b600060d08265ffffffffffff16901b60a08465ffffffffffff16901b85610d50576000610d53565b60015b60ff16171790505b9392505050565b306001600160a01b037f000000000000000000000000000000000000000000000000000000000000000016146107a85760405163703e46dd60e11b815260040160405180910390fd5b33610ddd7f9016d09d72d40fdae2fd8ceac6b6234c7706214fd39c1cd1e609a0528c199300546001600160a01b031690565b6001600160a01b0316146107a85760405163118cdaa760e01b81523360048201526024016104fd565b7f9016d09d72d40fdae2fd8ceac6b6234c7706214fd39c1cd1e609a0528c19930080546001600160a01b031981166001600160a01b03848116918217845560405192169182907f8be0079c531659141344cd1fd0a4f28419497f9722a3daafe3b4186f6b6457e090600090a3505050565b6107a8610fec565b610e87610fec565b610af081611035565b610e998261103d565b6040516001600160a01b038316907fbc7cd75a20ee27fd9adebab32041f755214dbc6bffa90cc0225b39da2e5c2d3b90600090a2805115610ede57610cf982826110a2565b6103fd611118565b60008060008351604103610f205760208401516040850151606086015160001a610f1288828585611137565b955095509550505050610f2c565b50508151600091506002905b9250925092565b6000826003811115610f4757610f47611854565b03610f50575050565b6001826003811115610f6457610f64611854565b03610f825760405163f645eedf60e01b815260040160405180910390fd5b6002826003811115610f9657610f96611854565b03610fb75760405163fce698f760e01b8152600481018290526024016104fd565b6003826003811115610fcb57610fcb611854565b036103fd576040516335e2f38360e21b8152600481018290526024016104fd565b7ff0c57e16840df040f15088dc2f81fe391c3923bec73e23a9662efc9c229c6a0054600160401b900460ff166107a857604051631afcd79f60e31b815260040160405180910390fd5b610abd610fec565b806001600160a01b03163b60000361107357604051634c9c8ce360e01b81526001600160a01b03821660048201526024016104fd565b60008051602061193883398151915280546001600160a01b0319166001600160a01b0392909216919091179055565b6060600080846001600160a01b0316846040516110bf919061191b565b600060405180830381855af49150503d80600081146110fa576040519150601f19603f3d011682016040523d82523d6000602084013e6110ff565b606091505b509150915061110f858383611206565b95945050505050565b34156107a85760405163b398979f60e01b815260040160405180910390fd5b600080807f7fffffffffffffffffffffffffffffff5d576e7357a4501ddfe92f46681b20a084111561117257506000915060039050826111fc565b604080516000808252602082018084528a905260ff891692820192909252606081018790526080810186905260019060a0016020604051602081039080840390855afa1580156111c6573d6000803e3d6000fd5b5050604051601f1901519150506001600160a01b0381166111f2575060009250600191508290506111fc565b9250600091508190505b9450945094915050565b60608261121b5761121682611262565b610d5b565b815115801561123257506001600160a01b0384163b155b1561125b57604051639996b31560e01b81526001600160a01b03851660048201526024016104fd565b5080610d5b565b8051156112725780518082602001fd5b60405163d6bda27560e01b815260040160405180910390fd5b6001600160a01b0381168114610af057600080fd5b634e487b7160e01b600052604160045260246000fd5b604051601f8201601f1916810167ffffffffffffffff811182821017156112df576112df6112a0565b604052919050565b600080604083850312156112fa57600080fd5b82356113058161128b565b915060208381013567ffffffffffffffff8082111561132357600080fd5b818601915086601f83011261133757600080fd5b813581811115611349576113496112a0565b61135b601f8201601f191685016112b6565b9150808252878482850101111561137157600080fd5b80848401858401376000848284010152508093505050509250929050565b6000806000606084860312156113a457600080fd5b833567ffffffffffffffff8111156113bb57600080fd5b840161012081870312156113ce57600080fd5b95602085013595506040909401359392505050565b60005b838110156113fe5781810151838201526020016113e6565b50506000910152565b6000815180845261141f8160208601602086016113e3565b601f01601f19169290920160200192915050565b6040815260006114466040830185611407565b90508260208301529392505050565b60006020828403121561146757600080fd5b8135610d5b8161128b565b60008083601f84011261148457600080fd5b50813567ffffffffffffffff81111561149c57600080fd5b6020830191508360208285010111156114b457600080fd5b9250929050565b6000806000806000608086880312156114d357600080fd5b8535600381106114e257600080fd5b9450602086013567ffffffffffffffff8111156114fe57600080fd5b61150a88828901611472565b9699909850959660408101359660609091013595509350505050565b6000806020838503121561153957600080fd5b823567ffffffffffffffff81111561155057600080fd5b61155c85828601611472565b90969095509350505050565b81835281816020850137506000828201602090810191909152601f909101601f19169091010190565b600065ffffffffffff8087168352808616602084015250606060408301526115bd606083018486611568565b9695505050505050565b65ffffffffffff81168114610af057600080fd5b600080600080608085870312156115f157600080fd5b84356115fc816115c7565b9350602085013561160c816115c7565b9250604085013561161c8161128b565b9150606085013561162c8161128b565b939692955090935050565b602081526000610d5b6020830184611407565b60008060006060848603121561165f57600080fd5b833561166a8161128b565b9250602084013561167a8161128b565b9150604084013561168a8161128b565b809150509250925092565b600080604083850312156116a857600080fd5b82356116b38161128b565b946020939093013593505050565b805163ffffffff811681146116d557600080fd5b919050565b80516116d5816115c7565b600060a082840312156116f757600080fd5b60405160a0810181811067ffffffffffffffff8211171561171a5761171a6112a0565b604052825181526020830151801515811461173457600080fd5b602082015260408301516dffffffffffffffffffffffffffff8116811461175a57600080fd5b604082015261176b606084016116c1565b606082015261177c608084016116da565b60808201529392505050565b6000808335601e1984360301811261179f57600080fd5b83018035915067ffffffffffffffff8211156117ba57600080fd5b6020019150368190038213156114b457600080fd5b600080858511156117df57600080fd5b838611156117ec57600080fd5b5050820193919092039150565b634e487b7160e01b600052601160045260246000fd5b65ffffffffffff81811683821601908082111561182e5761182e6117f9565b5092915050565b65ffffffffffff82811682821603908082111561182e5761182e6117f9565b634e487b7160e01b600052602160045260246000fd5b60208152600061187e602083018486611568565b949350505050565b6000600387106118a657634e487b7160e01b600052602160045260246000fd5b868252608060208301526118be608083018688611568565b604083019490945250606001529392505050565b6001600160d01b031981358181169160068510156118fa5780818660060360031b1b83161692505b505092915050565b60006020828403121561191457600080fd5b5051919050565b6000825161192d8184602087016113e3565b919091019291505056fe360894a13ba1a3210667c828492db98dca3e2076cc3735a920a3ca505d382bbca2646970667358221220d6ee92f1b5d71a76b168f2165159d6cf438ec49334e0d2b64704188627ac66b364736f6c63430008170033",
  "linkReferences": {},
  "deployedLinkReferences": {}
}